
PAGE: (3:132264)


BUFFER:


BUF @0x0000025DC87E2B80

bpage = 0x00000257FD8F0000          bPmmpage = 0x0000000000000000       bsort_r_nextbP = 0x0000025DC87E2C50
bsort_r_prevbP = 0x0000000000000000 bhash = 0x0000000000000000          bpageno = (3:132264)
bpart = 12                          bstat = 0x9                         breferences = 0
berrcode = 0                        bUse1 = 1044                        bstat2 = 0x0
blog = 0x2121215a                   bsampleCount = 0                    bIoCount = 0
resPoolId = 0                       bcputicks = 0                       bReadMicroSec = 206
bDirtyPendingCount = 0              bDirtyContext = 0x0000000000000000  bDbPageBroker = 0x0000000000000000
bdbid = 8                           bpru = 0x00000257D44A0040           

PAGE HEADER:


Page @0x00000257FD8F0000

m_pageId = (3:132264)               m_headerVersion = 1                 m_type = 1
m_typeFlagBits = 0x0                m_level = 0                         m_flagBits = 0x200
m_objId (AllocUnitId.idObj) = 580   m_indexId (AllocUnitId.idInd) = 256 Metadata: AllocUnitId = 72057594075938816
Metadata: PartitionId = 72057594065059840                                Metadata: IndexId = 1
Metadata: ObjectId = 1026102696     m_prevPage = (3:132298)             m_nextPage = (3:132265)
pminlen = 39                        m_slotCnt = 126                     m_freeCnt = 56
m_freeData = 7884                   m_reservedCnt = 0                   m_lsn = (627:6024:41)
m_xactReserved = 0                  m_xdesId = (0:7945278)              m_ghostRecCnt = 0
m_tornBits = 502263233              DB Frag ID = 1                      

Allocation Status

GAM (3:2) = ALLOCATED               SGAM (3:3) = NOT ALLOCATED          PFS (3:129408) = 0x40 ALLOCATED   0_PCT_FULL
DIFF (3:6) = CHANGED                ML (3:7) = NOT MIN_LOGGED           

Slot 0 Offset 0x60 Length 65

Record Type = PRIMARY_RECORD        Record Attributes =  NULL_BITMAP VARIABLE_COLUMNS
Record Size = 65                    
Memory Dump @0x000000CA1B9F6060

0000000000000000:   30002700 05020000 07000000 c8370b02 00000002  0.'.........È7......
0000000000000014:   000000dc 370b0108 00000000 d85eac3a c9370b0c  ...Ü7.......Ø^¬:É7..
0000000000000028:   00000301 00410042 00430030 00320038 00300039  .....A.B.C.0.2.8.0.9
000000000000003C:   00380032 00                                   .8.2.  

Slot 0 Column 1 Offset 0x4 Length 4 Length (physical) 4

PurchaseOrderID = 517               

Slot 0 Column 2 Offset 0x8 Length 4 Length (physical) 4

SupplierID = 7                      

Slot 0 Column 3 Offset 0xc Length 3 Length (physical) 3

OrderDate = 2013-11-05              

Slot 0 Column 4 Offset 0xf Length 4 Length (physical) 4

DeliveryMethodID = 2                

Slot 0 Column 5 Offset 0x13 Length 4 Length (physical) 4

ContactPersonID = 2                 

Slot 0 Column 6 Offset 0x17 Length 3 Length (physical) 3

ExpectedDeliveryDate = 2013-11-25   

Slot 0 Column 7 Offset 0x2f Length 18 Length (physical) 18

SupplierReference = BC0280982       

Slot 0 Column 8 Offset 0x1a Length 1 (Bit position 0)

IsOrderFinalized = 1                

Slot 0 Column 9 Offset 0x0 Length 0 Length (physical) 0

Comments = [NULL]                   

Slot 0 Column 10 Offset 0x0 Length 0 Length (physical) 0

InternalComments = [NULL]           

Slot 0 Column 11 Offset 0x1b Length 4 Length (physical) 4

LastEditedBy = 8                    

Slot 0 Column 12 Offset 0x1f Length 8 Length (physical) 8

LastEditedWhen = 2013-11-06 07:00:00.0000000                             

Slot 0 Offset 0x0 Length 0 Length (physical) 0

KeyHashValue = (676ad305821c)       
Slot 1 Offset 0xa1 Length 59

Record Type = PRIMARY_RECORD        Record Attributes =  NULL_BITMAP VARIABLE_COLUMNS
Record Size = 59                    
Memory Dump @0x000000CA1B9F60A1

0000000000000000:   30002700 06020000 04000000 c9370b07 00000002  0.'.........É7......
0000000000000014:   000000dd 370b010b 00000000 d85eac3a ca370b0c  ...Ý7.......Ø^¬:Ê7..
0000000000000028:   00000301 003b0032 00390033 00300039 003200    .....;.2.9.3.0.9.2.

Slot 1 Column 1 Offset 0x4 Length 4 Length (physical) 4

PurchaseOrderID = 518               

Slot 1 Column 2 Offset 0x8 Length 4 Length (physical) 4

SupplierID = 4                      

Slot 1 Column 3 Offset 0xc Length 3 Length (physical) 3

OrderDate = 2013-11-06              

Slot 1 Column 4 Offset 0xf Length 4 Length (physical) 4

DeliveryMethodID = 7                

Slot 1 Column 5 Offset 0x13 Length 4 Length (physical) 4

ContactPersonID = 2                 

Slot 1 Column 6 Offset 0x17 Length 3 Length (physical) 3

ExpectedDeliveryDate = 2013-11-26   

Slot 1 Column 7 Offset 0x2f Length 12 Length (physical) 12

SupplierReference = 293092          

Slot 1 Column 8 Offset 0x1a Length 1 (Bit position 0)

IsOrderFinalized = 1                

Slot 1 Column 9 Offset 0x0 Length 0 Length (physical) 0

Comments = [NULL]                   

Slot 1 Column 10 Offset 0x0 Length 0 Length (physical) 0

InternalComments = [NULL]           

Slot 1 Column 11 Offset 0x1b Length 4 Length (physical) 4

LastEditedBy = 11                   

Slot 1 Column 12 Offset 0x1f Length 8 Length (physical) 8

LastEditedWhen = 2013-11-07 07:00:00.0000000                             

Slot 1 Offset 0x0 Length 0 Length (physical) 0

KeyHashValue = (875efd8a46a0)       
Slot 2 Offset 0xdc Length 65

Record Type = PRIMARY_RECORD        Record Attributes =  NULL_BITMAP VARIABLE_COLUMNS
Record Size = 65                    
Memory Dump @0x000000CA1B9F60DC

0000000000000000:   30002700 07020000 07000000 c9370b02 00000002  0.'.........É7......
0000000000000014:   000000dd 370b010b 00000000 d85eac3a ca370b0c  ...Ý7.......Ø^¬:Ê7..
0000000000000028:   00000301 00410042 00430030 00320038 00300039  .....A.B.C.0.2.8.0.9
000000000000003C:   00380032 00                                   .8.2.  

Slot 2 Column 1 Offset 0x4 Length 4 Length (physical) 4

PurchaseOrderID = 519               

Slot 2 Column 2 Offset 0x8 Length 4 Length (physical) 4

SupplierID = 7                      

Slot 2 Column 3 Offset 0xc Length 3 Length (physical) 3

OrderDate = 2013-11-06              

Slot 2 Column 4 Offset 0xf Length 4 Length (physical) 4

DeliveryMethodID = 2                

Slot 2 Column 5 Offset 0x13 Length 4 Length (physical) 4

ContactPersonID = 2                 

Slot 2 Column 6 Offset 0x17 Length 3 Length (physical) 3

ExpectedDeliveryDate = 2013-11-26   

Slot 2 Column 7 Offset 0x2f Length 18 Length (physical) 18

SupplierReference = BC0280982       

Slot 2 Column 8 Offset 0x1a Length 1 (Bit position 0)

IsOrderFinalized = 1                

Slot 2 Column 9 Offset 0x0 Length 0 Length (physical) 0

Comments = [NULL]                   

Slot 2 Column 10 Offset 0x0 Length 0 Length (physical) 0

InternalComments = [NULL]           

Slot 2 Column 11 Offset 0x1b Length 4 Length (physical) 4

LastEditedBy = 11                   

Slot 2 Column 12 Offset 0x1f Length 8 Length (physical) 8

LastEditedWhen = 2013-11-07 07:00:00.0000000                             

Slot 2 Offset 0x0 Length 0 Length (physical) 0

KeyHashValue = (7e12961da3ac)       
Slot 3 Offset 0x11d Length 59

Record Type = PRIMARY_RECORD        Record Attributes =  NULL_BITMAP VARIABLE_COLUMNS
Record Size = 59                    
Memory Dump @0x000000CA1B9F611D

0000000000000000:   30002700 08020000 04000000 ca370b07 00000002  0.'.........Ê7......
0000000000000014:   000000de 370b0107 00000000 d85eac3a cb370b0c  ...Þ7.......Ø^¬:Ë7..
0000000000000028:   00000301 003b0032 00390033 00300039 003200    .....;.2.9.3.0.9.2.

Slot 3 Column 1 Offset 0x4 Length 4 Length (physical) 4

PurchaseOrderID = 520               

Slot 3 Column 2 Offset 0x8 Length 4 Length (physical) 4

SupplierID = 4                      

Slot 3 Column 3 Offset 0xc Length 3 Length (physical) 3

OrderDate = 2013-11-07              

Slot 3 Column 4 Offset 0xf Length 4 Length (physical) 4

DeliveryMethodID = 7                

Slot 3 Column 5 Offset 0x13 Length 4 Length (physical) 4

ContactPersonID = 2                 

Slot 3 Column 6 Offset 0x17 Length 3 Length (physical) 3

ExpectedDeliveryDate = 2013-11-27   

Slot 3 Column 7 Offset 0x2f Length 12 Length (physical) 12

SupplierReference = 293092          

Slot 3 Column 8 Offset 0x1a Length 1 (Bit position 0)

IsOrderFinalized = 1                

Slot 3 Column 9 Offset 0x0 Length 0 Length (physical) 0

Comments = [NULL]                   

Slot 3 Column 10 Offset 0x0 Length 0 Length (physical) 0

InternalComments = [NULL]           

Slot 3 Column 11 Offset 0x1b Length 4 Length (physical) 4

LastEditedBy = 7                    

Slot 3 Column 12 Offset 0x1f Length 8 Length (physical) 8

LastEditedWhen = 2013-11-08 07:00:00.0000000                             

Slot 3 Offset 0x0 Length 0 Length (physical) 0

KeyHashValue = (f71493989f4a)       
Slot 4 Offset 0x158 Length 65

Record Type = PRIMARY_RECORD        Record Attributes =  NULL_BITMAP VARIABLE_COLUMNS
Record Size = 65                    
Memory Dump @0x000000CA1B9F6158

0000000000000000:   30002700 09020000 07000000 ca370b02 00000002  0.'.	.......Ê7......
0000000000000014:   000000de 370b0107 00000000 d85eac3a cb370b0c  ...Þ7.......Ø^¬:Ë7..
0000000000000028:   00000301 00410042 00430030 00320038 00300039  .....A.B.C.0.2.8.0.9
000000000000003C:   00380032 00                                   .8.2.  

Slot 4 Column 1 Offset 0x4 Length 4 Length (physical) 4

PurchaseOrderID = 521               

Slot 4 Column 2 Offset 0x8 Length 4 Length (physical) 4

SupplierID = 7                      

Slot 4 Column 3 Offset 0xc Length 3 Length (physical) 3

OrderDate = 2013-11-07              

Slot 4 Column 4 Offset 0xf Length 4 Length (physical) 4

DeliveryMethodID = 2                

Slot 4 Column 5 Offset 0x13 Length 4 Length (physical) 4

ContactPersonID = 2                 

Slot 4 Column 6 Offset 0x17 Length 3 Length (physical) 3

ExpectedDeliveryDate = 2013-11-27   

Slot 4 Column 7 Offset 0x2f Length 18 Length (physical) 18

SupplierReference = BC0280982       

Slot 4 Column 8 Offset 0x1a Length 1 (Bit position 0)

IsOrderFinalized = 1                

Slot 4 Column 9 Offset 0x0 Length 0 Length (physical) 0

Comments = [NULL]                   

Slot 4 Column 10 Offset 0x0 Length 0 Length (physical) 0

InternalComments = [NULL]           

Slot 4 Column 11 Offset 0x1b Length 4 Length (physical) 4

LastEditedBy = 7                    

Slot 4 Column 12 Offset 0x1f Length 8 Length (physical) 8

LastEditedWhen = 2013-11-08 07:00:00.0000000                             

Slot 4 Offset 0x0 Length 0 Length (physical) 0

KeyHashValue = (0e58f80f7a46)       
Slot 5 Offset 0x199 Length 59

Record Type = PRIMARY_RECORD        Record Attributes =  NULL_BITMAP VARIABLE_COLUMNS
Record Size = 59                    
Memory Dump @0x000000CA1B9F6199

0000000000000000:   30002700 0a020000 04000000 cb370b07 00000002  0.'.........Ë7......
0000000000000014:   000000df 370b0108 00000000 d85eac3a ce370b0c  ...ß7.......Ø^¬:Î7..
0000000000000028:   00000301 003b0032 00390033 00300039 003200    .....;.2.9.3.0.9.2.

Slot 5 Column 1 Offset 0x4 Length 4 Length (physical) 4

PurchaseOrderID = 522               

Slot 5 Column 2 Offset 0x8 Length 4 Length (physical) 4

SupplierID = 4                      

Slot 5 Column 3 Offset 0xc Length 3 Length (physical) 3

OrderDate = 2013-11-08              

Slot 5 Column 4 Offset 0xf Length 4 Length (physical) 4

DeliveryMethodID = 7                

Slot 5 Column 5 Offset 0x13 Length 4 Length (physical) 4

ContactPersonID = 2                 

Slot 5 Column 6 Offset 0x17 Length 3 Length (physical) 3

ExpectedDeliveryDate = 2013-11-28   

Slot 5 Column 7 Offset 0x2f Length 12 Length (physical) 12

SupplierReference = 293092          

Slot 5 Column 8 Offset 0x1a Length 1 (Bit position 0)

IsOrderFinalized = 1                

Slot 5 Column 9 Offset 0x0 Length 0 Length (physical) 0

Comments = [NULL]                   

Slot 5 Column 10 Offset 0x0 Length 0 Length (physical) 0

InternalComments = [NULL]           

Slot 5 Column 11 Offset 0x1b Length 4 Length (physical) 4

LastEditedBy = 8                    

Slot 5 Column 12 Offset 0x1f Length 8 Length (physical) 8

LastEditedWhen = 2013-11-11 07:00:00.0000000                             

Slot 5 Offset 0x0 Length 0 Length (physical) 0

KeyHashValue = (ee6cd680befa)       
Slot 6 Offset 0x1d4 Length 65

Record Type = PRIMARY_RECORD        Record Attributes =  NULL_BITMAP VARIABLE_COLUMNS
Record Size = 65                    
Memory Dump @0x000000CA1B9F61D4

0000000000000000:   30002700 0b020000 07000000 cb370b02 00000002  0.'.........Ë7......
0000000000000014:   000000df 370b0108 00000000 d85eac3a ce370b0c  ...ß7.......Ø^¬:Î7..
0000000000000028:   00000301 00410042 00430030 00320038 00300039  .....A.B.C.0.2.8.0.9
000000000000003C:   00380032 00                                   .8.2.  

Slot 6 Column 1 Offset 0x4 Length 4 Length (physical) 4

PurchaseOrderID = 523               

Slot 6 Column 2 Offset 0x8 Length 4 Length (physical) 4

SupplierID = 7                      

Slot 6 Column 3 Offset 0xc Length 3 Length (physical) 3

OrderDate = 2013-11-08              

Slot 6 Column 4 Offset 0xf Length 4 Length (physical) 4

DeliveryMethodID = 2                

Slot 6 Column 5 Offset 0x13 Length 4 Length (physical) 4

ContactPersonID = 2                 

Slot 6 Column 6 Offset 0x17 Length 3 Length (physical) 3

ExpectedDeliveryDate = 2013-11-28   

Slot 6 Column 7 Offset 0x2f Length 18 Length (physical) 18

SupplierReference = BC0280982       

Slot 6 Column 8 Offset 0x1a Length 1 (Bit position 0)

IsOrderFinalized = 1                

Slot 6 Column 9 Offset 0x0 Length 0 Length (physical) 0

Comments = [NULL]                   

Slot 6 Column 10 Offset 0x0 Length 0 Length (physical) 0

InternalComments = [NULL]           

Slot 6 Column 11 Offset 0x1b Length 4 Length (physical) 4

LastEditedBy = 8                    

Slot 6 Column 12 Offset 0x1f Length 8 Length (physical) 8

LastEditedWhen = 2013-11-11 07:00:00.0000000                             

Slot 6 Offset 0x0 Length 0 Length (physical) 0

KeyHashValue = (1720bd175bf6)       
Slot 7 Offset 0x215 Length 59

Record Type = PRIMARY_RECORD        Record Attributes =  NULL_BITMAP VARIABLE_COLUMNS
Record Size = 59                    
Memory Dump @0x000000CA1B9F6215

0000000000000000:   30002700 0c020000 04000000 cc370b07 00000002  0.'.........Ì7......
0000000000000014:   000000d3 370b0108 00000000 d85eac3a ce370b0c  ...Ó7.......Ø^¬:Î7..
0000000000000028:   00000301 003b0032 00390033 00300039 003200    .....;.2.9.3.0.9.2.

Slot 7 Column 1 Offset 0x4 Length 4 Length (physical) 4

PurchaseOrderID = 524               

Slot 7 Column 2 Offset 0x8 Length 4 Length (physical) 4

SupplierID = 4                      

Slot 7 Column 3 Offset 0xc Length 3 Length (physical) 3

OrderDate = 2013-11-09              

Slot 7 Column 4 Offset 0xf Length 4 Length (physical) 4

DeliveryMethodID = 7                

Slot 7 Column 5 Offset 0x13 Length 4 Length (physical) 4

ContactPersonID = 2                 

Slot 7 Column 6 Offset 0x17 Length 3 Length (physical) 3

ExpectedDeliveryDate = 2013-11-16   

Slot 7 Column 7 Offset 0x2f Length 12 Length (physical) 12

SupplierReference = 293092          

Slot 7 Column 8 Offset 0x1a Length 1 (Bit position 0)

IsOrderFinalized = 1                

Slot 7 Column 9 Offset 0x0 Length 0 Length (physical) 0

Comments = [NULL]                   

Slot 7 Column 10 Offset 0x0 Length 0 Length (physical) 0

InternalComments = [NULL]           

Slot 7 Column 11 Offset 0x1b Length 4 Length (physical) 4

LastEditedBy = 8                    

Slot 7 Column 12 Offset 0x1f Length 8 Length (physical) 8

LastEditedWhen = 2013-11-11 07:00:00.0000000                             

Slot 7 Offset 0x0 Length 0 Length (physical) 0

KeyHashValue = (2f058a9e3783)       
Slot 8 Offset 0x250 Length 59

Record Type = PRIMARY_RECORD        Record Attributes =  NULL_BITMAP VARIABLE_COLUMNS
Record Size = 59                    
Memory Dump @0x000000CA1B9F6250

0000000000000000:   30002700 0d020000 04000000 ce370b07 00000002  0.'.........Î7......
0000000000000014:   000000e2 370b0109 00000000 d85eac3a cf370b0c  ...â7..	....Ø^¬:Ï7..
0000000000000028:   00000301 003b0032 00390033 00300039 003200    .....;.2.9.3.0.9.2.

Slot 8 Column 1 Offset 0x4 Length 4 Length (physical) 4

PurchaseOrderID = 525               

Slot 8 Column 2 Offset 0x8 Length 4 Length (physical) 4

SupplierID = 4                      

Slot 8 Column 3 Offset 0xc Length 3 Length (physical) 3

OrderDate = 2013-11-11              

Slot 8 Column 4 Offset 0xf Length 4 Length (physical) 4

DeliveryMethodID = 7                

Slot 8 Column 5 Offset 0x13 Length 4 Length (physical) 4

ContactPersonID = 2                 

Slot 8 Column 6 Offset 0x17 Length 3 Length (physical) 3

ExpectedDeliveryDate = 2013-12-01   

Slot 8 Column 7 Offset 0x2f Length 12 Length (physical) 12

SupplierReference = 293092          

Slot 8 Column 8 Offset 0x1a Length 1 (Bit position 0)

IsOrderFinalized = 1                

Slot 8 Column 9 Offset 0x0 Length 0 Length (physical) 0

Comments = [NULL]                   

Slot 8 Column 10 Offset 0x0 Length 0 Length (physical) 0

InternalComments = [NULL]           

Slot 8 Column 11 Offset 0x1b Length 4 Length (physical) 4

LastEditedBy = 9                    

Slot 8 Column 12 Offset 0x1f Length 8 Length (physical) 8

LastEditedWhen = 2013-11-12 07:00:00.0000000                             

Slot 8 Offset 0x0 Length 0 Length (physical) 0

KeyHashValue = (d649e109d28f)       
Slot 9 Offset 0x28b Length 65

Record Type = PRIMARY_RECORD        Record Attributes =  NULL_BITMAP VARIABLE_COLUMNS
Record Size = 65                    
Memory Dump @0x000000CA1B9F628B

0000000000000000:   30002700 0e020000 07000000 ce370b02 00000002  0.'.........Î7......
0000000000000014:   000000e2 370b0109 00000000 d85eac3a cf370b0c  ...â7..	....Ø^¬:Ï7..
0000000000000028:   00000301 00410042 00430030 00320038 00300039  .....A.B.C.0.2.8.0.9
000000000000003C:   00380032 00                                   .8.2.  

Slot 9 Column 1 Offset 0x4 Length 4 Length (physical) 4

PurchaseOrderID = 526               

Slot 9 Column 2 Offset 0x8 Length 4 Length (physical) 4

SupplierID = 7                      

Slot 9 Column 3 Offset 0xc Length 3 Length (physical) 3

OrderDate = 2013-11-11              

Slot 9 Column 4 Offset 0xf Length 4 Length (physical) 4

DeliveryMethodID = 2                

Slot 9 Column 5 Offset 0x13 Length 4 Length (physical) 4

ContactPersonID = 2                 

Slot 9 Column 6 Offset 0x17 Length 3 Length (physical) 3

ExpectedDeliveryDate = 2013-12-01   

Slot 9 Column 7 Offset 0x2f Length 18 Length (physical) 18

SupplierReference = BC0280982       

Slot 9 Column 8 Offset 0x1a Length 1 (Bit position 0)

IsOrderFinalized = 1                

Slot 9 Column 9 Offset 0x0 Length 0 Length (physical) 0

Comments = [NULL]                   

Slot 9 Column 10 Offset 0x0 Length 0 Length (physical) 0

InternalComments = [NULL]           

Slot 9 Column 11 Offset 0x1b Length 4 Length (physical) 4

LastEditedBy = 9                    

Slot 9 Column 12 Offset 0x1f Length 8 Length (physical) 8

LastEditedWhen = 2013-11-12 07:00:00.0000000                             

Slot 9 Offset 0x0 Length 0 Length (physical) 0

KeyHashValue = (367dcf861633)       
Slot 10 Offset 0x2cc Length 59

Record Type = PRIMARY_RECORD        Record Attributes =  NULL_BITMAP VARIABLE_COLUMNS
Record Size = 59                    
Memory Dump @0x000000CA1B9F62CC

0000000000000000:   30002700 0f020000 04000000 cf370b07 00000002  0.'.........Ï7......
0000000000000014:   000000e3 370b0109 00000000 d85eac3a d0370b0c  ...ã7..	....Ø^¬:Ð7..
0000000000000028:   00000301 003b0032 00390033 00300039 003200    .....;.2.9.3.0.9.2.

Slot 10 Column 1 Offset 0x4 Length 4 Length (physical) 4

PurchaseOrderID = 527               

Slot 10 Column 2 Offset 0x8 Length 4 Length (physical) 4

SupplierID = 4                      

Slot 10 Column 3 Offset 0xc Length 3 Length (physical) 3

OrderDate = 2013-11-12              

Slot 10 Column 4 Offset 0xf Length 4 Length (physical) 4

DeliveryMethodID = 7                

Slot 10 Column 5 Offset 0x13 Length 4 Length (physical) 4

ContactPersonID = 2                 

Slot 10 Column 6 Offset 0x17 Length 3 Length (physical) 3

ExpectedDeliveryDate = 2013-12-02   

Slot 10 Column 7 Offset 0x2f Length 12 Length (physical) 12

SupplierReference = 293092          

Slot 10 Column 8 Offset 0x1a Length 1 (Bit position 0)

IsOrderFinalized = 1                

Slot 10 Column 9 Offset 0x0 Length 0 Length (physical) 0

Comments = [NULL]                   

Slot 10 Column 10 Offset 0x0 Length 0 Length (physical) 0

InternalComments = [NULL]           

Slot 10 Column 11 Offset 0x1b Length 4 Length (physical) 4

LastEditedBy = 9                    

Slot 10 Column 12 Offset 0x1f Length 8 Length (physical) 8

LastEditedWhen = 2013-11-13 07:00:00.0000000                             

Slot 10 Offset 0x0 Length 0 Length (physical) 0

KeyHashValue = (cf31a411f33f)       
Slot 11 Offset 0x307 Length 65

Record Type = PRIMARY_RECORD        Record Attributes =  NULL_BITMAP VARIABLE_COLUMNS
Record Size = 65                    
Memory Dump @0x000000CA1B9F6307

0000000000000000:   30002700 10020000 07000000 cf370b02 00000002  0.'.........Ï7......
0000000000000014:   000000e3 370b0109 00000000 d85eac3a d0370b0c  ...ã7..	....Ø^¬:Ð7..
0000000000000028:   00000301 00410042 00430030 00320038 00300039  .....A.B.C.0.2.8.0.9
000000000000003C:   00380032 00                                   .8.2.  

Slot 11 Column 1 Offset 0x4 Length 4 Length (physical) 4

PurchaseOrderID = 528               

Slot 11 Column 2 Offset 0x8 Length 4 Length (physical) 4

SupplierID = 7                      

Slot 11 Column 3 Offset 0xc Length 3 Length (physical) 3

OrderDate = 2013-11-12              

Slot 11 Column 4 Offset 0xf Length 4 Length (physical) 4

DeliveryMethodID = 2                

Slot 11 Column 5 Offset 0x13 Length 4 Length (physical) 4

ContactPersonID = 2                 

Slot 11 Column 6 Offset 0x17 Length 3 Length (physical) 3

ExpectedDeliveryDate = 2013-12-02   

Slot 11 Column 7 Offset 0x2f Length 18 Length (physical) 18

SupplierReference = BC0280982       

Slot 11 Column 8 Offset 0x1a Length 1 (Bit position 0)

IsOrderFinalized = 1                

Slot 11 Column 9 Offset 0x0 Length 0 Length (physical) 0

Comments = [NULL]                   

Slot 11 Column 10 Offset 0x0 Length 0 Length (physical) 0

InternalComments = [NULL]           

Slot 11 Column 11 Offset 0x1b Length 4 Length (physical) 4

LastEditedBy = 9                    

Slot 11 Column 12 Offset 0x1f Length 8 Length (physical) 8

LastEditedWhen = 2013-11-13 07:00:00.0000000                             

Slot 11 Offset 0x0 Length 0 Length (physical) 0

KeyHashValue = (ce9156ba8556)       
Slot 12 Offset 0x348 Length 59

Record Type = PRIMARY_RECORD        Record Attributes =  NULL_BITMAP VARIABLE_COLUMNS
Record Size = 59                    
Memory Dump @0x000000CA1B9F6348

0000000000000000:   30002700 11020000 04000000 d0370b07 00000002  0.'.........Ð7......
0000000000000014:   000000e4 370b010f 00000000 d85eac3a d1370b0c  ...ä7.......Ø^¬:Ñ7..
0000000000000028:   00000301 003b0032 00390033 00300039 003200    .....;.2.9.3.0.9.2.

Slot 12 Column 1 Offset 0x4 Length 4 Length (physical) 4

PurchaseOrderID = 529               

Slot 12 Column 2 Offset 0x8 Length 4 Length (physical) 4

SupplierID = 4                      

Slot 12 Column 3 Offset 0xc Length 3 Length (physical) 3

OrderDate = 2013-11-13              

Slot 12 Column 4 Offset 0xf Length 4 Length (physical) 4

DeliveryMethodID = 7                

Slot 12 Column 5 Offset 0x13 Length 4 Length (physical) 4

ContactPersonID = 2                 

Slot 12 Column 6 Offset 0x17 Length 3 Length (physical) 3

ExpectedDeliveryDate = 2013-12-03   

Slot 12 Column 7 Offset 0x2f Length 12 Length (physical) 12

SupplierReference = 293092          

Slot 12 Column 8 Offset 0x1a Length 1 (Bit position 0)

IsOrderFinalized = 1                

Slot 12 Column 9 Offset 0x0 Length 0 Length (physical) 0

Comments = [NULL]                   

Slot 12 Column 10 Offset 0x0 Length 0 Length (physical) 0

InternalComments = [NULL]           

Slot 12 Column 11 Offset 0x1b Length 4 Length (physical) 4

LastEditedBy = 15                   

Slot 12 Column 12 Offset 0x1f Length 8 Length (physical) 8

LastEditedWhen = 2013-11-14 07:00:00.0000000                             

Slot 12 Offset 0x0 Length 0 Length (physical) 0

KeyHashValue = (37dd3d2d605a)       
Slot 13 Offset 0x383 Length 65

Record Type = PRIMARY_RECORD        Record Attributes =  NULL_BITMAP VARIABLE_COLUMNS
Record Size = 65                    
Memory Dump @0x000000CA1B9F6383

0000000000000000:   30002700 12020000 07000000 d0370b02 00000002  0.'.........Ð7......
0000000000000014:   000000e4 370b010f 00000000 d85eac3a d1370b0c  ...ä7.......Ø^¬:Ñ7..
0000000000000028:   00000301 00410042 00430030 00320038 00300039  .....A.B.C.0.2.8.0.9
000000000000003C:   00380032 00                                   .8.2.  

Slot 13 Column 1 Offset 0x4 Length 4 Length (physical) 4

PurchaseOrderID = 530               

Slot 13 Column 2 Offset 0x8 Length 4 Length (physical) 4

SupplierID = 7                      

Slot 13 Column 3 Offset 0xc Length 3 Length (physical) 3

OrderDate = 2013-11-13              

Slot 13 Column 4 Offset 0xf Length 4 Length (physical) 4

DeliveryMethodID = 2                

Slot 13 Column 5 Offset 0x13 Length 4 Length (physical) 4

ContactPersonID = 2                 

Slot 13 Column 6 Offset 0x17 Length 3 Length (physical) 3

ExpectedDeliveryDate = 2013-12-03   

Slot 13 Column 7 Offset 0x2f Length 18 Length (physical) 18

SupplierReference = BC0280982       

Slot 13 Column 8 Offset 0x1a Length 1 (Bit position 0)

IsOrderFinalized = 1                

Slot 13 Column 9 Offset 0x0 Length 0 Length (physical) 0

Comments = [NULL]                   

Slot 13 Column 10 Offset 0x0 Length 0 Length (physical) 0

InternalComments = [NULL]           

Slot 13 Column 11 Offset 0x1b Length 4 Length (physical) 4

LastEditedBy = 15                   

Slot 13 Column 12 Offset 0x1f Length 8 Length (physical) 8

LastEditedWhen = 2013-11-14 07:00:00.0000000                             

Slot 13 Offset 0x0 Length 0 Length (physical) 0

KeyHashValue = (d7e913a2a4e6)       
Slot 14 Offset 0x3c4 Length 59

Record Type = PRIMARY_RECORD        Record Attributes =  NULL_BITMAP VARIABLE_COLUMNS
Record Size = 59                    
Memory Dump @0x000000CA1B9F63C4

0000000000000000:   30002700 13020000 04000000 d1370b07 00000002  0.'.........Ñ7......
0000000000000014:   000000e5 370b0112 00000000 d85eac3a d2370b0c  ...å7.......Ø^¬:Ò7..
0000000000000028:   00000301 003b0032 00390033 00300039 003200    .....;.2.9.3.0.9.2.

Slot 14 Column 1 Offset 0x4 Length 4 Length (physical) 4

PurchaseOrderID = 531               

Slot 14 Column 2 Offset 0x8 Length 4 Length (physical) 4

SupplierID = 4                      

Slot 14 Column 3 Offset 0xc Length 3 Length (physical) 3

OrderDate = 2013-11-14              

Slot 14 Column 4 Offset 0xf Length 4 Length (physical) 4

DeliveryMethodID = 7                

Slot 14 Column 5 Offset 0x13 Length 4 Length (physical) 4

ContactPersonID = 2                 

Slot 14 Column 6 Offset 0x17 Length 3 Length (physical) 3

ExpectedDeliveryDate = 2013-12-04   

Slot 14 Column 7 Offset 0x2f Length 12 Length (physical) 12

SupplierReference = 293092          

Slot 14 Column 8 Offset 0x1a Length 1 (Bit position 0)

IsOrderFinalized = 1                

Slot 14 Column 9 Offset 0x0 Length 0 Length (physical) 0

Comments = [NULL]                   

Slot 14 Column 10 Offset 0x0 Length 0 Length (physical) 0

InternalComments = [NULL]           

Slot 14 Column 11 Offset 0x1b Length 4 Length (physical) 4

LastEditedBy = 18                   

Slot 14 Column 12 Offset 0x1f Length 8 Length (physical) 8

LastEditedWhen = 2013-11-15 07:00:00.0000000                             

Slot 14 Offset 0x0 Length 0 Length (physical) 0

KeyHashValue = (2ea5783541ea)       
Slot 15 Offset 0x3ff Length 65

Record Type = PRIMARY_RECORD        Record Attributes =  NULL_BITMAP VARIABLE_COLUMNS
Record Size = 65                    
Memory Dump @0x000000CA1B9F63FF

0000000000000000:   30002700 14020000 07000000 d1370b02 00000002  0.'.........Ñ7......
0000000000000014:   000000e5 370b0112 00000000 d85eac3a d2370b0c  ...å7.......Ø^¬:Ò7..
0000000000000028:   00000301 00410042 00430030 00320038 00300039  .....A.B.C.0.2.8.0.9
000000000000003C:   00380032 00                                   .8.2.  

Slot 15 Column 1 Offset 0x4 Length 4 Length (physical) 4

PurchaseOrderID = 532               

Slot 15 Column 2 Offset 0x8 Length 4 Length (physical) 4

SupplierID = 7                      

Slot 15 Column 3 Offset 0xc Length 3 Length (physical) 3

OrderDate = 2013-11-14              

Slot 15 Column 4 Offset 0xf Length 4 Length (physical) 4

DeliveryMethodID = 2                

Slot 15 Column 5 Offset 0x13 Length 4 Length (physical) 4

ContactPersonID = 2                 

Slot 15 Column 6 Offset 0x17 Length 3 Length (physical) 3

ExpectedDeliveryDate = 2013-12-04   

Slot 15 Column 7 Offset 0x2f Length 18 Length (physical) 18

SupplierReference = BC0280982       

Slot 15 Column 8 Offset 0x1a Length 1 (Bit position 0)

IsOrderFinalized = 1                

Slot 15 Column 9 Offset 0x0 Length 0 Length (physical) 0

Comments = [NULL]                   

Slot 15 Column 10 Offset 0x0 Length 0 Length (physical) 0

InternalComments = [NULL]           

Slot 15 Column 11 Offset 0x1b Length 4 Length (physical) 4

LastEditedBy = 18                   

Slot 15 Column 12 Offset 0x1f Length 8 Length (physical) 8

LastEditedWhen = 2013-11-15 07:00:00.0000000                             

Slot 15 Offset 0x0 Length 0 Length (physical) 0

KeyHashValue = (16804fbc2d9f)       
Slot 16 Offset 0x440 Length 59

Record Type = PRIMARY_RECORD        Record Attributes =  NULL_BITMAP VARIABLE_COLUMNS
Record Size = 59                    
Memory Dump @0x000000CA1B9F6440

0000000000000000:   30002700 15020000 04000000 d2370b07 00000002  0.'.........Ò7......
0000000000000014:   000000e6 370b010e 00000000 d85eac3a d5370b0c  ...æ7.......Ø^¬:Õ7..
0000000000000028:   00000301 003b0032 00390033 00300039 003200    .....;.2.9.3.0.9.2.

Slot 16 Column 1 Offset 0x4 Length 4 Length (physical) 4

PurchaseOrderID = 533               

Slot 16 Column 2 Offset 0x8 Length 4 Length (physical) 4

SupplierID = 4                      

Slot 16 Column 3 Offset 0xc Length 3 Length (physical) 3

OrderDate = 2013-11-15              

Slot 16 Column 4 Offset 0xf Length 4 Length (physical) 4

DeliveryMethodID = 7                

Slot 16 Column 5 Offset 0x13 Length 4 Length (physical) 4

ContactPersonID = 2                 

Slot 16 Column 6 Offset 0x17 Length 3 Length (physical) 3

ExpectedDeliveryDate = 2013-12-05   

Slot 16 Column 7 Offset 0x2f Length 12 Length (physical) 12

SupplierReference = 293092          

Slot 16 Column 8 Offset 0x1a Length 1 (Bit position 0)

IsOrderFinalized = 1                

Slot 16 Column 9 Offset 0x0 Length 0 Length (physical) 0

Comments = [NULL]                   

Slot 16 Column 10 Offset 0x0 Length 0 Length (physical) 0

InternalComments = [NULL]           

Slot 16 Column 11 Offset 0x1b Length 4 Length (physical) 4

LastEditedBy = 14                   

Slot 16 Column 12 Offset 0x1f Length 8 Length (physical) 8

LastEditedWhen = 2013-11-18 07:00:00.0000000                             

Slot 16 Offset 0x0 Length 0 Length (physical) 0

KeyHashValue = (efcc242bc893)       
Slot 17 Offset 0x47b Length 65

Record Type = PRIMARY_RECORD        Record Attributes =  NULL_BITMAP VARIABLE_COLUMNS
Record Size = 65                    
Memory Dump @0x000000CA1B9F647B

0000000000000000:   30002700 16020000 07000000 d2370b02 00000002  0.'.........Ò7......
0000000000000014:   000000e6 370b010e 00000000 d85eac3a d5370b0c  ...æ7.......Ø^¬:Õ7..
0000000000000028:   00000301 00410042 00430030 00320038 00300039  .....A.B.C.0.2.8.0.9
000000000000003C:   00380032 00                                   .8.2.  

Slot 17 Column 1 Offset 0x4 Length 4 Length (physical) 4

PurchaseOrderID = 534               

Slot 17 Column 2 Offset 0x8 Length 4 Length (physical) 4

SupplierID = 7                      

Slot 17 Column 3 Offset 0xc Length 3 Length (physical) 3

OrderDate = 2013-11-15              

Slot 17 Column 4 Offset 0xf Length 4 Length (physical) 4

DeliveryMethodID = 2                

Slot 17 Column 5 Offset 0x13 Length 4 Length (physical) 4

ContactPersonID = 2                 

Slot 17 Column 6 Offset 0x17 Length 3 Length (physical) 3

ExpectedDeliveryDate = 2013-12-05   

Slot 17 Column 7 Offset 0x2f Length 18 Length (physical) 18

SupplierReference = BC0280982       

Slot 17 Column 8 Offset 0x1a Length 1 (Bit position 0)

IsOrderFinalized = 1                

Slot 17 Column 9 Offset 0x0 Length 0 Length (physical) 0

Comments = [NULL]                   

Slot 17 Column 10 Offset 0x0 Length 0 Length (physical) 0

InternalComments = [NULL]           

Slot 17 Column 11 Offset 0x1b Length 4 Length (physical) 4

LastEditedBy = 14                   

Slot 17 Column 12 Offset 0x1f Length 8 Length (physical) 8

LastEditedWhen = 2013-11-18 07:00:00.0000000                             

Slot 17 Offset 0x0 Length 0 Length (physical) 0

KeyHashValue = (0ff80aa40c2f)       
Slot 18 Offset 0x4bc Length 59

Record Type = PRIMARY_RECORD        Record Attributes =  NULL_BITMAP VARIABLE_COLUMNS
Record Size = 59                    
Memory Dump @0x000000CA1B9F64BC

0000000000000000:   30002700 17020000 04000000 d3370b07 00000002  0.'.........Ó7......
0000000000000014:   000000da 370b010e 00000000 d85eac3a d5370b0c  ...Ú7.......Ø^¬:Õ7..
0000000000000028:   00000301 003b0032 00390033 00300039 003200    .....;.2.9.3.0.9.2.

Slot 18 Column 1 Offset 0x4 Length 4 Length (physical) 4

PurchaseOrderID = 535               

Slot 18 Column 2 Offset 0x8 Length 4 Length (physical) 4

SupplierID = 4                      

Slot 18 Column 3 Offset 0xc Length 3 Length (physical) 3

OrderDate = 2013-11-16              

Slot 18 Column 4 Offset 0xf Length 4 Length (physical) 4

DeliveryMethodID = 7                

Slot 18 Column 5 Offset 0x13 Length 4 Length (physical) 4

ContactPersonID = 2                 

Slot 18 Column 6 Offset 0x17 Length 3 Length (physical) 3

ExpectedDeliveryDate = 2013-11-23   

Slot 18 Column 7 Offset 0x2f Length 12 Length (physical) 12

SupplierReference = 293092          

Slot 18 Column 8 Offset 0x1a Length 1 (Bit position 0)

IsOrderFinalized = 1                

Slot 18 Column 9 Offset 0x0 Length 0 Length (physical) 0

Comments = [NULL]                   

Slot 18 Column 10 Offset 0x0 Length 0 Length (physical) 0

InternalComments = [NULL]           

Slot 18 Column 11 Offset 0x1b Length 4 Length (physical) 4

LastEditedBy = 14                   

Slot 18 Column 12 Offset 0x1f Length 8 Length (physical) 8

LastEditedWhen = 2013-11-18 07:00:00.0000000                             

Slot 18 Offset 0x0 Length 0 Length (physical) 0

KeyHashValue = (f6b46133e923)       
Slot 19 Offset 0x4f7 Length 59

Record Type = PRIMARY_RECORD        Record Attributes =  NULL_BITMAP VARIABLE_COLUMNS
Record Size = 59                    
Memory Dump @0x000000CA1B9F64F7

0000000000000000:   30002700 18020000 04000000 d5370b07 00000002  0.'.........Õ7......
0000000000000014:   000000e9 370b0102 00000000 d85eac3a d6370b0c  ...é7.......Ø^¬:Ö7..
0000000000000028:   00000301 003b0032 00390033 00300039 003200    .....;.2.9.3.0.9.2.

Slot 19 Column 1 Offset 0x4 Length 4 Length (physical) 4

PurchaseOrderID = 536               

Slot 19 Column 2 Offset 0x8 Length 4 Length (physical) 4

SupplierID = 4                      

Slot 19 Column 3 Offset 0xc Length 3 Length (physical) 3

OrderDate = 2013-11-18              

Slot 19 Column 4 Offset 0xf Length 4 Length (physical) 4

DeliveryMethodID = 7                

Slot 19 Column 5 Offset 0x13 Length 4 Length (physical) 4

ContactPersonID = 2                 

Slot 19 Column 6 Offset 0x17 Length 3 Length (physical) 3

ExpectedDeliveryDate = 2013-12-08   

Slot 19 Column 7 Offset 0x2f Length 12 Length (physical) 12

SupplierReference = 293092          

Slot 19 Column 8 Offset 0x1a Length 1 (Bit position 0)

IsOrderFinalized = 1                

Slot 19 Column 9 Offset 0x0 Length 0 Length (physical) 0

Comments = [NULL]                   

Slot 19 Column 10 Offset 0x0 Length 0 Length (physical) 0

InternalComments = [NULL]           

Slot 19 Column 11 Offset 0x1b Length 4 Length (physical) 4

LastEditedBy = 2                    

Slot 19 Column 12 Offset 0x1f Length 8 Length (physical) 8

LastEditedWhen = 2013-11-19 07:00:00.0000000                             

Slot 19 Offset 0x0 Length 0 Length (physical) 0

KeyHashValue = (7fb264b6d5c5)       
Slot 20 Offset 0x532 Length 65

Record Type = PRIMARY_RECORD        Record Attributes =  NULL_BITMAP VARIABLE_COLUMNS
Record Size = 65                    
Memory Dump @0x000000CA1B9F6532

0000000000000000:   30002700 19020000 07000000 d5370b02 00000002  0.'.........Õ7......
0000000000000014:   000000e9 370b0102 00000000 d85eac3a d6370b0c  ...é7.......Ø^¬:Ö7..
0000000000000028:   00000301 00410042 00430030 00320038 00300039  .....A.B.C.0.2.8.0.9
000000000000003C:   00380032 00                                   .8.2.  

Slot 20 Column 1 Offset 0x4 Length 4 Length (physical) 4

PurchaseOrderID = 537               

Slot 20 Column 2 Offset 0x8 Length 4 Length (physical) 4

SupplierID = 7                      

Slot 20 Column 3 Offset 0xc Length 3 Length (physical) 3

OrderDate = 2013-11-18              

Slot 20 Column 4 Offset 0xf Length 4 Length (physical) 4

DeliveryMethodID = 2                

Slot 20 Column 5 Offset 0x13 Length 4 Length (physical) 4

ContactPersonID = 2                 

Slot 20 Column 6 Offset 0x17 Length 3 Length (physical) 3

ExpectedDeliveryDate = 2013-12-08   

Slot 20 Column 7 Offset 0x2f Length 18 Length (physical) 18

SupplierReference = BC0280982       

Slot 20 Column 8 Offset 0x1a Length 1 (Bit position 0)

IsOrderFinalized = 1                

Slot 20 Column 9 Offset 0x0 Length 0 Length (physical) 0

Comments = [NULL]                   

Slot 20 Column 10 Offset 0x0 Length 0 Length (physical) 0

InternalComments = [NULL]           

Slot 20 Column 11 Offset 0x1b Length 4 Length (physical) 4

LastEditedBy = 2                    

Slot 20 Column 12 Offset 0x1f Length 8 Length (physical) 8

LastEditedWhen = 2013-11-19 07:00:00.0000000                             

Slot 20 Offset 0x0 Length 0 Length (physical) 0

KeyHashValue = (86fe0f2130c9)       
Slot 21 Offset 0x573 Length 59

Record Type = PRIMARY_RECORD        Record Attributes =  NULL_BITMAP VARIABLE_COLUMNS
Record Size = 59                    
Memory Dump @0x000000CA1B9F6573

0000000000000000:   30002700 1a020000 04000000 d6370b07 00000002  0.'.........Ö7......
0000000000000014:   000000ea 370b0102 00000000 d85eac3a d7370b0c  ...ê7.......Ø^¬:×7..
0000000000000028:   00000301 003b0032 00390033 00300039 003200    .....;.2.9.3.0.9.2.

Slot 21 Column 1 Offset 0x4 Length 4 Length (physical) 4

PurchaseOrderID = 538               

Slot 21 Column 2 Offset 0x8 Length 4 Length (physical) 4

SupplierID = 4                      

Slot 21 Column 3 Offset 0xc Length 3 Length (physical) 3

OrderDate = 2013-11-19              

Slot 21 Column 4 Offset 0xf Length 4 Length (physical) 4

DeliveryMethodID = 7                

Slot 21 Column 5 Offset 0x13 Length 4 Length (physical) 4

ContactPersonID = 2                 

Slot 21 Column 6 Offset 0x17 Length 3 Length (physical) 3

ExpectedDeliveryDate = 2013-12-09   

Slot 21 Column 7 Offset 0x2f Length 12 Length (physical) 12

SupplierReference = 293092          

Slot 21 Column 8 Offset 0x1a Length 1 (Bit position 0)

IsOrderFinalized = 1                

Slot 21 Column 9 Offset 0x0 Length 0 Length (physical) 0

Comments = [NULL]                   

Slot 21 Column 10 Offset 0x0 Length 0 Length (physical) 0

InternalComments = [NULL]           

Slot 21 Column 11 Offset 0x1b Length 4 Length (physical) 4

LastEditedBy = 2                    

Slot 21 Column 12 Offset 0x1f Length 8 Length (physical) 8

LastEditedWhen = 2013-11-20 07:00:00.0000000                             

Slot 21 Offset 0x0 Length 0 Length (physical) 0

KeyHashValue = (66ca21aef475)       
Slot 22 Offset 0x5ae Length 65

Record Type = PRIMARY_RECORD        Record Attributes =  NULL_BITMAP VARIABLE_COLUMNS
Record Size = 65                    
Memory Dump @0x000000CA1B9F65AE

0000000000000000:   30002700 1b020000 07000000 d6370b02 00000002  0.'.........Ö7......
0000000000000014:   000000ea 370b0102 00000000 d85eac3a d7370b0c  ...ê7.......Ø^¬:×7..
0000000000000028:   00000301 00410042 00430030 00320038 00300039  .....A.B.C.0.2.8.0.9
000000000000003C:   00380032 00                                   .8.2.  

Slot 22 Column 1 Offset 0x4 Length 4 Length (physical) 4

PurchaseOrderID = 539               

Slot 22 Column 2 Offset 0x8 Length 4 Length (physical) 4

SupplierID = 7                      

Slot 22 Column 3 Offset 0xc Length 3 Length (physical) 3

OrderDate = 2013-11-19              

Slot 22 Column 4 Offset 0xf Length 4 Length (physical) 4

DeliveryMethodID = 2                

Slot 22 Column 5 Offset 0x13 Length 4 Length (physical) 4

ContactPersonID = 2                 

Slot 22 Column 6 Offset 0x17 Length 3 Length (physical) 3

ExpectedDeliveryDate = 2013-12-09   

Slot 22 Column 7 Offset 0x2f Length 18 Length (physical) 18

SupplierReference = BC0280982       

Slot 22 Column 8 Offset 0x1a Length 1 (Bit position 0)

IsOrderFinalized = 1                

Slot 22 Column 9 Offset 0x0 Length 0 Length (physical) 0

Comments = [NULL]                   

Slot 22 Column 10 Offset 0x0 Length 0 Length (physical) 0

InternalComments = [NULL]           

Slot 22 Column 11 Offset 0x1b Length 4 Length (physical) 4

LastEditedBy = 2                    

Slot 22 Column 12 Offset 0x1f Length 8 Length (physical) 8

LastEditedWhen = 2013-11-20 07:00:00.0000000                             

Slot 22 Offset 0x0 Length 0 Length (physical) 0

KeyHashValue = (9f864a391179)       
Slot 23 Offset 0x5ef Length 59

Record Type = PRIMARY_RECORD        Record Attributes =  NULL_BITMAP VARIABLE_COLUMNS
Record Size = 59                    
Memory Dump @0x000000CA1B9F65EF

0000000000000000:   30002700 1c020000 04000000 d7370b07 00000002  0.'.........×7......
0000000000000014:   000000eb 370b0103 00000000 d85eac3a d8370b0c  ...ë7.......Ø^¬:Ø7..
0000000000000028:   00000301 003b0032 00390033 00300039 003200    .....;.2.9.3.0.9.2.

Slot 23 Column 1 Offset 0x4 Length 4 Length (physical) 4

PurchaseOrderID = 540               

Slot 23 Column 2 Offset 0x8 Length 4 Length (physical) 4

SupplierID = 4                      

Slot 23 Column 3 Offset 0xc Length 3 Length (physical) 3

OrderDate = 2013-11-20              

Slot 23 Column 4 Offset 0xf Length 4 Length (physical) 4

DeliveryMethodID = 7                

Slot 23 Column 5 Offset 0x13 Length 4 Length (physical) 4

ContactPersonID = 2                 

Slot 23 Column 6 Offset 0x17 Length 3 Length (physical) 3

ExpectedDeliveryDate = 2013-12-10   

Slot 23 Column 7 Offset 0x2f Length 12 Length (physical) 12

SupplierReference = 293092          

Slot 23 Column 8 Offset 0x1a Length 1 (Bit position 0)

IsOrderFinalized = 1                

Slot 23 Column 9 Offset 0x0 Length 0 Length (physical) 0

Comments = [NULL]                   

Slot 23 Column 10 Offset 0x0 Length 0 Length (physical) 0

InternalComments = [NULL]           

Slot 23 Column 11 Offset 0x1b Length 4 Length (physical) 4

LastEditedBy = 3                    

Slot 23 Column 12 Offset 0x1f Length 8 Length (physical) 8

LastEditedWhen = 2013-11-21 07:00:00.0000000                             

Slot 23 Offset 0x0 Length 0 Length (physical) 0

KeyHashValue = (a7a37db07d0c)       
Slot 24 Offset 0x62a Length 65

Record Type = PRIMARY_RECORD        Record Attributes =  NULL_BITMAP VARIABLE_COLUMNS
Record Size = 65                    
Memory Dump @0x000000CA1B9F662A

0000000000000000:   30002700 1d020000 07000000 d7370b02 00000002  0.'.........×7......
0000000000000014:   000000eb 370b0103 00000000 d85eac3a d8370b0c  ...ë7.......Ø^¬:Ø7..
0000000000000028:   00000301 00410042 00430030 00320038 00300039  .....A.B.C.0.2.8.0.9
000000000000003C:   00380032 00                                   .8.2.  

Slot 24 Column 1 Offset 0x4 Length 4 Length (physical) 4

PurchaseOrderID = 541               

Slot 24 Column 2 Offset 0x8 Length 4 Length (physical) 4

SupplierID = 7                      

Slot 24 Column 3 Offset 0xc Length 3 Length (physical) 3

OrderDate = 2013-11-20              

Slot 24 Column 4 Offset 0xf Length 4 Length (physical) 4

DeliveryMethodID = 2                

Slot 24 Column 5 Offset 0x13 Length 4 Length (physical) 4

ContactPersonID = 2                 

Slot 24 Column 6 Offset 0x17 Length 3 Length (physical) 3

ExpectedDeliveryDate = 2013-12-10   

Slot 24 Column 7 Offset 0x2f Length 18 Length (physical) 18

SupplierReference = BC0280982       

Slot 24 Column 8 Offset 0x1a Length 1 (Bit position 0)

IsOrderFinalized = 1                

Slot 24 Column 9 Offset 0x0 Length 0 Length (physical) 0

Comments = [NULL]                   

Slot 24 Column 10 Offset 0x0 Length 0 Length (physical) 0

InternalComments = [NULL]           

Slot 24 Column 11 Offset 0x1b Length 4 Length (physical) 4

LastEditedBy = 3                    

Slot 24 Column 12 Offset 0x1f Length 8 Length (physical) 8

LastEditedWhen = 2013-11-21 07:00:00.0000000                             

Slot 24 Offset 0x0 Length 0 Length (physical) 0

KeyHashValue = (5eef16279800)       
Slot 25 Offset 0x66b Length 59

Record Type = PRIMARY_RECORD        Record Attributes =  NULL_BITMAP VARIABLE_COLUMNS
Record Size = 59                    
Memory Dump @0x000000CA1B9F666B

0000000000000000:   30002700 1e020000 04000000 d8370b07 00000002  0.'.........Ø7......
0000000000000014:   000000ec 370b0103 00000000 d85eac3a d9370b0c  ...ì7.......Ø^¬:Ù7..
0000000000000028:   00000301 003b0032 00390033 00300039 003200    .....;.2.9.3.0.9.2.

Slot 25 Column 1 Offset 0x4 Length 4 Length (physical) 4

PurchaseOrderID = 542               

Slot 25 Column 2 Offset 0x8 Length 4 Length (physical) 4

SupplierID = 4                      

Slot 25 Column 3 Offset 0xc Length 3 Length (physical) 3

OrderDate = 2013-11-21              

Slot 25 Column 4 Offset 0xf Length 4 Length (physical) 4

DeliveryMethodID = 7                

Slot 25 Column 5 Offset 0x13 Length 4 Length (physical) 4

ContactPersonID = 2                 

Slot 25 Column 6 Offset 0x17 Length 3 Length (physical) 3

ExpectedDeliveryDate = 2013-12-11   

Slot 25 Column 7 Offset 0x2f Length 12 Length (physical) 12

SupplierReference = 293092          

Slot 25 Column 8 Offset 0x1a Length 1 (Bit position 0)

IsOrderFinalized = 1                

Slot 25 Column 9 Offset 0x0 Length 0 Length (physical) 0

Comments = [NULL]                   

Slot 25 Column 10 Offset 0x0 Length 0 Length (physical) 0

InternalComments = [NULL]           

Slot 25 Column 11 Offset 0x1b Length 4 Length (physical) 4

LastEditedBy = 3                    

Slot 25 Column 12 Offset 0x1f Length 8 Length (physical) 8

LastEditedWhen = 2013-11-22 07:00:00.0000000                             

Slot 25 Offset 0x0 Length 0 Length (physical) 0

KeyHashValue = (bedb38a85cbc)       
Slot 26 Offset 0x6a6 Length 65

Record Type = PRIMARY_RECORD        Record Attributes =  NULL_BITMAP VARIABLE_COLUMNS
Record Size = 65                    
Memory Dump @0x000000CA1B9F66A6

0000000000000000:   30002700 1f020000 07000000 d8370b02 00000002  0.'.........Ø7......
0000000000000014:   000000ec 370b0103 00000000 d85eac3a d9370b0c  ...ì7.......Ø^¬:Ù7..
0000000000000028:   00000301 00410042 00430030 00320038 00300039  .....A.B.C.0.2.8.0.9
000000000000003C:   00380032 00                                   .8.2.  

Slot 26 Column 1 Offset 0x4 Length 4 Length (physical) 4

PurchaseOrderID = 543               

Slot 26 Column 2 Offset 0x8 Length 4 Length (physical) 4

SupplierID = 7                      

Slot 26 Column 3 Offset 0xc Length 3 Length (physical) 3

OrderDate = 2013-11-21              

Slot 26 Column 4 Offset 0xf Length 4 Length (physical) 4

DeliveryMethodID = 2                

Slot 26 Column 5 Offset 0x13 Length 4 Length (physical) 4

ContactPersonID = 2                 

Slot 26 Column 6 Offset 0x17 Length 3 Length (physical) 3

ExpectedDeliveryDate = 2013-12-11   

Slot 26 Column 7 Offset 0x2f Length 18 Length (physical) 18

SupplierReference = BC0280982       

Slot 26 Column 8 Offset 0x1a Length 1 (Bit position 0)

IsOrderFinalized = 1                

Slot 26 Column 9 Offset 0x0 Length 0 Length (physical) 0

Comments = [NULL]                   

Slot 26 Column 10 Offset 0x0 Length 0 Length (physical) 0

InternalComments = [NULL]           

Slot 26 Column 11 Offset 0x1b Length 4 Length (physical) 4

LastEditedBy = 3                    

Slot 26 Column 12 Offset 0x1f Length 8 Length (physical) 8

LastEditedWhen = 2013-11-22 07:00:00.0000000                             

Slot 26 Offset 0x0 Length 0 Length (physical) 0

KeyHashValue = (4797533fb9b0)       
Slot 27 Offset 0x6e7 Length 59

Record Type = PRIMARY_RECORD        Record Attributes =  NULL_BITMAP VARIABLE_COLUMNS
Record Size = 59                    
Memory Dump @0x000000CA1B9F66E7

0000000000000000:   30002700 20020000 04000000 d9370b07 00000002  0.'. .......Ù7......
0000000000000014:   000000ed 370b0105 00000000 d85eac3a dc370b0c  ...í7.......Ø^¬:Ü7..
0000000000000028:   00000301 003b0032 00390033 00300039 003200    .....;.2.9.3.0.9.2.

Slot 27 Column 1 Offset 0x4 Length 4 Length (physical) 4

PurchaseOrderID = 544               

Slot 27 Column 2 Offset 0x8 Length 4 Length (physical) 4

SupplierID = 4                      

Slot 27 Column 3 Offset 0xc Length 3 Length (physical) 3

OrderDate = 2013-11-22              

Slot 27 Column 4 Offset 0xf Length 4 Length (physical) 4

DeliveryMethodID = 7                

Slot 27 Column 5 Offset 0x13 Length 4 Length (physical) 4

ContactPersonID = 2                 

Slot 27 Column 6 Offset 0x17 Length 3 Length (physical) 3

ExpectedDeliveryDate = 2013-12-12   

Slot 27 Column 7 Offset 0x2f Length 12 Length (physical) 12

SupplierReference = 293092          

Slot 27 Column 8 Offset 0x1a Length 1 (Bit position 0)

IsOrderFinalized = 1                

Slot 27 Column 9 Offset 0x0 Length 0 Length (physical) 0

Comments = [NULL]                   

Slot 27 Column 10 Offset 0x0 Length 0 Length (physical) 0

InternalComments = [NULL]           

Slot 27 Column 11 Offset 0x1b Length 4 Length (physical) 4

LastEditedBy = 5                    

Slot 27 Column 12 Offset 0x1f Length 8 Length (physical) 8

LastEditedWhen = 2013-11-25 07:00:00.0000000                             

Slot 27 Offset 0x0 Length 0 Length (physical) 0

KeyHashValue = (577a4fc95bc7)       
Slot 28 Offset 0x722 Length 65

Record Type = PRIMARY_RECORD        Record Attributes =  NULL_BITMAP VARIABLE_COLUMNS
Record Size = 65                    
Memory Dump @0x000000CA1B9F6722

0000000000000000:   30002700 21020000 07000000 d9370b02 00000002  0.'.!.......Ù7......
0000000000000014:   000000ed 370b0105 00000000 d85eac3a dc370b0c  ...í7.......Ø^¬:Ü7..
0000000000000028:   00000301 00410042 00430030 00320038 00300039  .....A.B.C.0.2.8.0.9
000000000000003C:   00380032 00                                   .8.2.  

Slot 28 Column 1 Offset 0x4 Length 4 Length (physical) 4

PurchaseOrderID = 545               

Slot 28 Column 2 Offset 0x8 Length 4 Length (physical) 4

SupplierID = 7                      

Slot 28 Column 3 Offset 0xc Length 3 Length (physical) 3

OrderDate = 2013-11-22              

Slot 28 Column 4 Offset 0xf Length 4 Length (physical) 4

DeliveryMethodID = 2                

Slot 28 Column 5 Offset 0x13 Length 4 Length (physical) 4

ContactPersonID = 2                 

Slot 28 Column 6 Offset 0x17 Length 3 Length (physical) 3

ExpectedDeliveryDate = 2013-12-12   

Slot 28 Column 7 Offset 0x2f Length 18 Length (physical) 18

SupplierReference = BC0280982       

Slot 28 Column 8 Offset 0x1a Length 1 (Bit position 0)

IsOrderFinalized = 1                

Slot 28 Column 9 Offset 0x0 Length 0 Length (physical) 0

Comments = [NULL]                   

Slot 28 Column 10 Offset 0x0 Length 0 Length (physical) 0

InternalComments = [NULL]           

Slot 28 Column 11 Offset 0x1b Length 4 Length (physical) 4

LastEditedBy = 5                    

Slot 28 Column 12 Offset 0x1f Length 8 Length (physical) 8

LastEditedWhen = 2013-11-25 07:00:00.0000000                             

Slot 28 Offset 0x0 Length 0 Length (physical) 0

KeyHashValue = (ae36245ebecb)       
Slot 29 Offset 0x763 Length 59

Record Type = PRIMARY_RECORD        Record Attributes =  NULL_BITMAP VARIABLE_COLUMNS
Record Size = 59                    
Memory Dump @0x000000CA1B9F6763

0000000000000000:   30002700 22020000 04000000 da370b07 00000002  0.'.".......Ú7......
0000000000000014:   000000e1 370b0105 00000000 d85eac3a dc370b0c  ...á7.......Ø^¬:Ü7..
0000000000000028:   00000301 003b0032 00390033 00300039 003200    .....;.2.9.3.0.9.2.

Slot 29 Column 1 Offset 0x4 Length 4 Length (physical) 4

PurchaseOrderID = 546               

Slot 29 Column 2 Offset 0x8 Length 4 Length (physical) 4

SupplierID = 4                      

Slot 29 Column 3 Offset 0xc Length 3 Length (physical) 3

OrderDate = 2013-11-23              

Slot 29 Column 4 Offset 0xf Length 4 Length (physical) 4

DeliveryMethodID = 7                

Slot 29 Column 5 Offset 0x13 Length 4 Length (physical) 4

ContactPersonID = 2                 

Slot 29 Column 6 Offset 0x17 Length 3 Length (physical) 3

ExpectedDeliveryDate = 2013-11-30   

Slot 29 Column 7 Offset 0x2f Length 12 Length (physical) 12

SupplierReference = 293092          

Slot 29 Column 8 Offset 0x1a Length 1 (Bit position 0)

IsOrderFinalized = 1                

Slot 29 Column 9 Offset 0x0 Length 0 Length (physical) 0

Comments = [NULL]                   

Slot 29 Column 10 Offset 0x0 Length 0 Length (physical) 0

InternalComments = [NULL]           

Slot 29 Column 11 Offset 0x1b Length 4 Length (physical) 4

LastEditedBy = 5                    

Slot 29 Column 12 Offset 0x1f Length 8 Length (physical) 8

LastEditedWhen = 2013-11-25 07:00:00.0000000                             

Slot 29 Offset 0x0 Length 0 Length (physical) 0

KeyHashValue = (4e020ad17a77)       
Slot 30 Offset 0x79e Length 59

Record Type = PRIMARY_RECORD        Record Attributes =  NULL_BITMAP VARIABLE_COLUMNS
Record Size = 59                    
Memory Dump @0x000000CA1B9F679E

0000000000000000:   30002700 23020000 04000000 dc370b07 00000002  0.'.#.......Ü7......
0000000000000014:   000000f0 370b0103 00000000 d85eac3a dd370b0c  ...ð7.......Ø^¬:Ý7..
0000000000000028:   00000301 003b0032 00390033 00300039 003200    .....;.2.9.3.0.9.2.

Slot 30 Column 1 Offset 0x4 Length 4 Length (physical) 4

PurchaseOrderID = 547               

Slot 30 Column 2 Offset 0x8 Length 4 Length (physical) 4

SupplierID = 4                      

Slot 30 Column 3 Offset 0xc Length 3 Length (physical) 3

OrderDate = 2013-11-25              

Slot 30 Column 4 Offset 0xf Length 4 Length (physical) 4

DeliveryMethodID = 7                

Slot 30 Column 5 Offset 0x13 Length 4 Length (physical) 4

ContactPersonID = 2                 

Slot 30 Column 6 Offset 0x17 Length 3 Length (physical) 3

ExpectedDeliveryDate = 2013-12-15   

Slot 30 Column 7 Offset 0x2f Length 12 Length (physical) 12

SupplierReference = 293092          

Slot 30 Column 8 Offset 0x1a Length 1 (Bit position 0)

IsOrderFinalized = 1                

Slot 30 Column 9 Offset 0x0 Length 0 Length (physical) 0

Comments = [NULL]                   

Slot 30 Column 10 Offset 0x0 Length 0 Length (physical) 0

InternalComments = [NULL]           

Slot 30 Column 11 Offset 0x1b Length 4 Length (physical) 4

LastEditedBy = 3                    

Slot 30 Column 12 Offset 0x1f Length 8 Length (physical) 8

LastEditedWhen = 2013-11-26 07:00:00.0000000                             

Slot 30 Offset 0x0 Length 0 Length (physical) 0

KeyHashValue = (b74e61469f7b)       
Slot 31 Offset 0x7d9 Length 65

Record Type = PRIMARY_RECORD        Record Attributes =  NULL_BITMAP VARIABLE_COLUMNS
Record Size = 65                    
Memory Dump @0x000000CA1B9F67D9

0000000000000000:   30002700 24020000 07000000 dc370b02 00000002  0.'.$.......Ü7......
0000000000000014:   000000f0 370b0103 00000000 d85eac3a dd370b0c  ...ð7.......Ø^¬:Ý7..
0000000000000028:   00000301 00410042 00430030 00320038 00300039  .....A.B.C.0.2.8.0.9
000000000000003C:   00380032 00                                   .8.2.  

Slot 31 Column 1 Offset 0x4 Length 4 Length (physical) 4

PurchaseOrderID = 548               

Slot 31 Column 2 Offset 0x8 Length 4 Length (physical) 4

SupplierID = 7                      

Slot 31 Column 3 Offset 0xc Length 3 Length (physical) 3

OrderDate = 2013-11-25              

Slot 31 Column 4 Offset 0xf Length 4 Length (physical) 4

DeliveryMethodID = 2                

Slot 31 Column 5 Offset 0x13 Length 4 Length (physical) 4

ContactPersonID = 2                 

Slot 31 Column 6 Offset 0x17 Length 3 Length (physical) 3

ExpectedDeliveryDate = 2013-12-15   

Slot 31 Column 7 Offset 0x2f Length 18 Length (physical) 18

SupplierReference = BC0280982       

Slot 31 Column 8 Offset 0x1a Length 1 (Bit position 0)

IsOrderFinalized = 1                

Slot 31 Column 9 Offset 0x0 Length 0 Length (physical) 0

Comments = [NULL]                   

Slot 31 Column 10 Offset 0x0 Length 0 Length (physical) 0

InternalComments = [NULL]           

Slot 31 Column 11 Offset 0x1b Length 4 Length (physical) 4

LastEditedBy = 3                    

Slot 31 Column 12 Offset 0x1f Length 8 Length (physical) 8

LastEditedWhen = 2013-11-26 07:00:00.0000000                             

Slot 31 Offset 0x0 Length 0 Length (physical) 0

KeyHashValue = (8f6b56cff30e)       
Slot 32 Offset 0x81a Length 59

Record Type = PRIMARY_RECORD        Record Attributes =  NULL_BITMAP VARIABLE_COLUMNS
Record Size = 59                    
Memory Dump @0x000000CA1B9F681A

0000000000000000:   30002700 25020000 04000000 dd370b07 00000002  0.'.%.......Ý7......
0000000000000014:   000000f1 370b0104 00000000 d85eac3a de370b0c  ...ñ7.......Ø^¬:Þ7..
0000000000000028:   00000301 003b0032 00390033 00300039 003200    .....;.2.9.3.0.9.2.

Slot 32 Column 1 Offset 0x4 Length 4 Length (physical) 4

PurchaseOrderID = 549               

Slot 32 Column 2 Offset 0x8 Length 4 Length (physical) 4

SupplierID = 4                      

Slot 32 Column 3 Offset 0xc Length 3 Length (physical) 3

OrderDate = 2013-11-26              

Slot 32 Column 4 Offset 0xf Length 4 Length (physical) 4

DeliveryMethodID = 7                

Slot 32 Column 5 Offset 0x13 Length 4 Length (physical) 4

ContactPersonID = 2                 

Slot 32 Column 6 Offset 0x17 Length 3 Length (physical) 3

ExpectedDeliveryDate = 2013-12-16   

Slot 32 Column 7 Offset 0x2f Length 12 Length (physical) 12

SupplierReference = 293092          

Slot 32 Column 8 Offset 0x1a Length 1 (Bit position 0)

IsOrderFinalized = 1                

Slot 32 Column 9 Offset 0x0 Length 0 Length (physical) 0

Comments = [NULL]                   

Slot 32 Column 10 Offset 0x0 Length 0 Length (physical) 0

InternalComments = [NULL]           

Slot 32 Column 11 Offset 0x1b Length 4 Length (physical) 4

LastEditedBy = 4                    

Slot 32 Column 12 Offset 0x1f Length 8 Length (physical) 8

LastEditedWhen = 2013-11-27 07:00:00.0000000                             

Slot 32 Offset 0x0 Length 0 Length (physical) 0

KeyHashValue = (76273d581602)       
Slot 33 Offset 0x855 Length 65

Record Type = PRIMARY_RECORD        Record Attributes =  NULL_BITMAP VARIABLE_COLUMNS
Record Size = 65                    
Memory Dump @0x000000CA1B9F6855

0000000000000000:   30002700 26020000 07000000 dd370b02 00000002  0.'.&.......Ý7......
0000000000000014:   000000f1 370b0104 00000000 d85eac3a de370b0c  ...ñ7.......Ø^¬:Þ7..
0000000000000028:   00000301 00410042 00430030 00320038 00300039  .....A.B.C.0.2.8.0.9
000000000000003C:   00380032 00                                   .8.2.  

Slot 33 Column 1 Offset 0x4 Length 4 Length (physical) 4

PurchaseOrderID = 550               

Slot 33 Column 2 Offset 0x8 Length 4 Length (physical) 4

SupplierID = 7                      

Slot 33 Column 3 Offset 0xc Length 3 Length (physical) 3

OrderDate = 2013-11-26              

Slot 33 Column 4 Offset 0xf Length 4 Length (physical) 4

DeliveryMethodID = 2                

Slot 33 Column 5 Offset 0x13 Length 4 Length (physical) 4

ContactPersonID = 2                 

Slot 33 Column 6 Offset 0x17 Length 3 Length (physical) 3

ExpectedDeliveryDate = 2013-12-16   

Slot 33 Column 7 Offset 0x2f Length 18 Length (physical) 18

SupplierReference = BC0280982       

Slot 33 Column 8 Offset 0x1a Length 1 (Bit position 0)

IsOrderFinalized = 1                

Slot 33 Column 9 Offset 0x0 Length 0 Length (physical) 0

Comments = [NULL]                   

Slot 33 Column 10 Offset 0x0 Length 0 Length (physical) 0

InternalComments = [NULL]           

Slot 33 Column 11 Offset 0x1b Length 4 Length (physical) 4

LastEditedBy = 4                    

Slot 33 Column 12 Offset 0x1f Length 8 Length (physical) 8

LastEditedWhen = 2013-11-27 07:00:00.0000000                             

Slot 33 Offset 0x0 Length 0 Length (physical) 0

KeyHashValue = (961313d7d2be)       
Slot 34 Offset 0x896 Length 59

Record Type = PRIMARY_RECORD        Record Attributes =  NULL_BITMAP VARIABLE_COLUMNS
Record Size = 59                    
Memory Dump @0x000000CA1B9F6896

0000000000000000:   30002700 27020000 04000000 de370b07 00000002  0.'.'.......Þ7......
0000000000000014:   000000f2 370b010f 00000000 d85eac3a df370b0c  ...ò7.......Ø^¬:ß7..
0000000000000028:   00000301 003b0032 00390033 00300039 003200    .....;.2.9.3.0.9.2.

Slot 34 Column 1 Offset 0x4 Length 4 Length (physical) 4

PurchaseOrderID = 551               

Slot 34 Column 2 Offset 0x8 Length 4 Length (physical) 4

SupplierID = 4                      

Slot 34 Column 3 Offset 0xc Length 3 Length (physical) 3

OrderDate = 2013-11-27              

Slot 34 Column 4 Offset 0xf Length 4 Length (physical) 4

DeliveryMethodID = 7                

Slot 34 Column 5 Offset 0x13 Length 4 Length (physical) 4

ContactPersonID = 2                 

Slot 34 Column 6 Offset 0x17 Length 3 Length (physical) 3

ExpectedDeliveryDate = 2013-12-17   

Slot 34 Column 7 Offset 0x2f Length 12 Length (physical) 12

SupplierReference = 293092          

Slot 34 Column 8 Offset 0x1a Length 1 (Bit position 0)

IsOrderFinalized = 1                

Slot 34 Column 9 Offset 0x0 Length 0 Length (physical) 0

Comments = [NULL]                   

Slot 34 Column 10 Offset 0x0 Length 0 Length (physical) 0

InternalComments = [NULL]           

Slot 34 Column 11 Offset 0x1b Length 4 Length (physical) 4

LastEditedBy = 15                   

Slot 34 Column 12 Offset 0x1f Length 8 Length (physical) 8

LastEditedWhen = 2013-11-28 07:00:00.0000000                             

Slot 34 Offset 0x0 Length 0 Length (physical) 0

KeyHashValue = (6f5f784037b2)       
Slot 35 Offset 0x8d1 Length 65

Record Type = PRIMARY_RECORD        Record Attributes =  NULL_BITMAP VARIABLE_COLUMNS
Record Size = 65                    
Memory Dump @0x000000CA1B9F68D1

0000000000000000:   30002700 28020000 07000000 de370b02 00000002  0.'.(.......Þ7......
0000000000000014:   000000f2 370b010f 00000000 d85eac3a df370b0c  ...ò7.......Ø^¬:ß7..
0000000000000028:   00000301 00410042 00430030 00320038 00300039  .....A.B.C.0.2.8.0.9
000000000000003C:   00380032 00                                   .8.2.  

Slot 35 Column 1 Offset 0x4 Length 4 Length (physical) 4

PurchaseOrderID = 552               

Slot 35 Column 2 Offset 0x8 Length 4 Length (physical) 4

SupplierID = 7                      

Slot 35 Column 3 Offset 0xc Length 3 Length (physical) 3

OrderDate = 2013-11-27              

Slot 35 Column 4 Offset 0xf Length 4 Length (physical) 4

DeliveryMethodID = 2                

Slot 35 Column 5 Offset 0x13 Length 4 Length (physical) 4

ContactPersonID = 2                 

Slot 35 Column 6 Offset 0x17 Length 3 Length (physical) 3

ExpectedDeliveryDate = 2013-12-17   

Slot 35 Column 7 Offset 0x2f Length 18 Length (physical) 18

SupplierReference = BC0280982       

Slot 35 Column 8 Offset 0x1a Length 1 (Bit position 0)

IsOrderFinalized = 1                

Slot 35 Column 9 Offset 0x0 Length 0 Length (physical) 0

Comments = [NULL]                   

Slot 35 Column 10 Offset 0x0 Length 0 Length (physical) 0

InternalComments = [NULL]           

Slot 35 Column 11 Offset 0x1b Length 4 Length (physical) 4

LastEditedBy = 15                   

Slot 35 Column 12 Offset 0x1f Length 8 Length (physical) 8

LastEditedWhen = 2013-11-28 07:00:00.0000000                             

Slot 35 Offset 0x0 Length 0 Length (physical) 0

KeyHashValue = (e6597dc50b54)       
Slot 36 Offset 0x912 Length 59

Record Type = PRIMARY_RECORD        Record Attributes =  NULL_BITMAP VARIABLE_COLUMNS
Record Size = 59                    
Memory Dump @0x000000CA1B9F6912

0000000000000000:   30002700 29020000 04000000 df370b07 00000002  0.'.).......ß7......
0000000000000014:   000000f3 370b0109 00000000 d85eac3a e0370b0c  ...ó7..	....Ø^¬:à7..
0000000000000028:   00000301 003b0032 00390033 00300039 003200    .....;.2.9.3.0.9.2.

Slot 36 Column 1 Offset 0x4 Length 4 Length (physical) 4

PurchaseOrderID = 553               

Slot 36 Column 2 Offset 0x8 Length 4 Length (physical) 4

SupplierID = 4                      

Slot 36 Column 3 Offset 0xc Length 3 Length (physical) 3

OrderDate = 2013-11-28              

Slot 36 Column 4 Offset 0xf Length 4 Length (physical) 4

DeliveryMethodID = 7                

Slot 36 Column 5 Offset 0x13 Length 4 Length (physical) 4

ContactPersonID = 2                 

Slot 36 Column 6 Offset 0x17 Length 3 Length (physical) 3

ExpectedDeliveryDate = 2013-12-18   

Slot 36 Column 7 Offset 0x2f Length 12 Length (physical) 12

SupplierReference = 293092          

Slot 36 Column 8 Offset 0x1a Length 1 (Bit position 0)

IsOrderFinalized = 1                

Slot 36 Column 9 Offset 0x0 Length 0 Length (physical) 0

Comments = [NULL]                   

Slot 36 Column 10 Offset 0x0 Length 0 Length (physical) 0

InternalComments = [NULL]           

Slot 36 Column 11 Offset 0x1b Length 4 Length (physical) 4

LastEditedBy = 9                    

Slot 36 Column 12 Offset 0x1f Length 8 Length (physical) 8

LastEditedWhen = 2013-11-29 07:00:00.0000000                             

Slot 36 Offset 0x0 Length 0 Length (physical) 0

KeyHashValue = (1f151652ee58)       
Slot 37 Offset 0x94d Length 65

Record Type = PRIMARY_RECORD        Record Attributes =  NULL_BITMAP VARIABLE_COLUMNS
Record Size = 65                    
Memory Dump @0x000000CA1B9F694D

0000000000000000:   30002700 2a020000 07000000 df370b02 00000002  0.'.*.......ß7......
0000000000000014:   000000f3 370b0109 00000000 d85eac3a e0370b0c  ...ó7..	....Ø^¬:à7..
0000000000000028:   00000301 00410042 00430030 00320038 00300039  .....A.B.C.0.2.8.0.9
000000000000003C:   00380032 00                                   .8.2.  

Slot 37 Column 1 Offset 0x4 Length 4 Length (physical) 4

PurchaseOrderID = 554               

Slot 37 Column 2 Offset 0x8 Length 4 Length (physical) 4

SupplierID = 7                      

Slot 37 Column 3 Offset 0xc Length 3 Length (physical) 3

OrderDate = 2013-11-28              

Slot 37 Column 4 Offset 0xf Length 4 Length (physical) 4

DeliveryMethodID = 2                

Slot 37 Column 5 Offset 0x13 Length 4 Length (physical) 4

ContactPersonID = 2                 

Slot 37 Column 6 Offset 0x17 Length 3 Length (physical) 3

ExpectedDeliveryDate = 2013-12-18   

Slot 37 Column 7 Offset 0x2f Length 18 Length (physical) 18

SupplierReference = BC0280982       

Slot 37 Column 8 Offset 0x1a Length 1 (Bit position 0)

IsOrderFinalized = 1                

Slot 37 Column 9 Offset 0x0 Length 0 Length (physical) 0

Comments = [NULL]                   

Slot 37 Column 10 Offset 0x0 Length 0 Length (physical) 0

InternalComments = [NULL]           

Slot 37 Column 11 Offset 0x1b Length 4 Length (physical) 4

LastEditedBy = 9                    

Slot 37 Column 12 Offset 0x1f Length 8 Length (physical) 8

LastEditedWhen = 2013-11-29 07:00:00.0000000                             

Slot 37 Offset 0x0 Length 0 Length (physical) 0

KeyHashValue = (ff2138dd2ae4)       
Slot 38 Offset 0x98e Length 59

Record Type = PRIMARY_RECORD        Record Attributes =  NULL_BITMAP VARIABLE_COLUMNS
Record Size = 59                    
Memory Dump @0x000000CA1B9F698E

0000000000000000:   30002700 2b020000 04000000 e0370b07 00000002  0.'.+.......à7......
0000000000000014:   000000f4 370b010d 00000000 d85eac3a e3370b0c  ...ô7.......Ø^¬:ã7..
0000000000000028:   00000301 003b0032 00390033 00300039 003200    .....;.2.9.3.0.9.2.

Slot 38 Column 1 Offset 0x4 Length 4 Length (physical) 4

PurchaseOrderID = 555               

Slot 38 Column 2 Offset 0x8 Length 4 Length (physical) 4

SupplierID = 4                      

Slot 38 Column 3 Offset 0xc Length 3 Length (physical) 3

OrderDate = 2013-11-29              

Slot 38 Column 4 Offset 0xf Length 4 Length (physical) 4

DeliveryMethodID = 7                

Slot 38 Column 5 Offset 0x13 Length 4 Length (physical) 4

ContactPersonID = 2                 

Slot 38 Column 6 Offset 0x17 Length 3 Length (physical) 3

ExpectedDeliveryDate = 2013-12-19   

Slot 38 Column 7 Offset 0x2f Length 12 Length (physical) 12

SupplierReference = 293092          

Slot 38 Column 8 Offset 0x1a Length 1 (Bit position 0)

IsOrderFinalized = 1                

Slot 38 Column 9 Offset 0x0 Length 0 Length (physical) 0

Comments = [NULL]                   

Slot 38 Column 10 Offset 0x0 Length 0 Length (physical) 0

InternalComments = [NULL]           

Slot 38 Column 11 Offset 0x1b Length 4 Length (physical) 4

LastEditedBy = 13                   

Slot 38 Column 12 Offset 0x1f Length 8 Length (physical) 8

LastEditedWhen = 2013-12-02 07:00:00.0000000                             

Slot 38 Offset 0x0 Length 0 Length (physical) 0

KeyHashValue = (066d534acfe8)       
Slot 39 Offset 0x9c9 Length 65

Record Type = PRIMARY_RECORD        Record Attributes =  NULL_BITMAP VARIABLE_COLUMNS
Record Size = 65                    
Memory Dump @0x000000CA1B9F69C9

0000000000000000:   30002700 2c020000 07000000 e0370b02 00000002  0.'.,.......à7......
0000000000000014:   000000f4 370b010d 00000000 d85eac3a e3370b0c  ...ô7.......Ø^¬:ã7..
0000000000000028:   00000301 00410042 00430030 00320038 00300039  .....A.B.C.0.2.8.0.9
000000000000003C:   00380032 00                                   .8.2.  

Slot 39 Column 1 Offset 0x4 Length 4 Length (physical) 4

PurchaseOrderID = 556               

Slot 39 Column 2 Offset 0x8 Length 4 Length (physical) 4

SupplierID = 7                      

Slot 39 Column 3 Offset 0xc Length 3 Length (physical) 3

OrderDate = 2013-11-29              

Slot 39 Column 4 Offset 0xf Length 4 Length (physical) 4

DeliveryMethodID = 2                

Slot 39 Column 5 Offset 0x13 Length 4 Length (physical) 4

ContactPersonID = 2                 

Slot 39 Column 6 Offset 0x17 Length 3 Length (physical) 3

ExpectedDeliveryDate = 2013-12-19   

Slot 39 Column 7 Offset 0x2f Length 18 Length (physical) 18

SupplierReference = BC0280982       

Slot 39 Column 8 Offset 0x1a Length 1 (Bit position 0)

IsOrderFinalized = 1                

Slot 39 Column 9 Offset 0x0 Length 0 Length (physical) 0

Comments = [NULL]                   

Slot 39 Column 10 Offset 0x0 Length 0 Length (physical) 0

InternalComments = [NULL]           

Slot 39 Column 11 Offset 0x1b Length 4 Length (physical) 4

LastEditedBy = 13                   

Slot 39 Column 12 Offset 0x1f Length 8 Length (physical) 8

LastEditedWhen = 2013-12-02 07:00:00.0000000                             

Slot 39 Offset 0x0 Length 0 Length (physical) 0

KeyHashValue = (3e4864c3a39d)       
Slot 40 Offset 0xa0a Length 59

Record Type = PRIMARY_RECORD        Record Attributes =  NULL_BITMAP VARIABLE_COLUMNS
Record Size = 59                    
Memory Dump @0x000000CA1B9F6A0A

0000000000000000:   30002700 2d020000 04000000 e1370b07 00000002  0.'.-.......á7......
0000000000000014:   000000e8 370b010d 00000000 d85eac3a e3370b0c  ...è7.......Ø^¬:ã7..
0000000000000028:   00000301 003b0032 00390033 00300039 003200    .....;.2.9.3.0.9.2.

Slot 40 Column 1 Offset 0x4 Length 4 Length (physical) 4

PurchaseOrderID = 557               

Slot 40 Column 2 Offset 0x8 Length 4 Length (physical) 4

SupplierID = 4                      

Slot 40 Column 3 Offset 0xc Length 3 Length (physical) 3

OrderDate = 2013-11-30              

Slot 40 Column 4 Offset 0xf Length 4 Length (physical) 4

DeliveryMethodID = 7                

Slot 40 Column 5 Offset 0x13 Length 4 Length (physical) 4

ContactPersonID = 2                 

Slot 40 Column 6 Offset 0x17 Length 3 Length (physical) 3

ExpectedDeliveryDate = 2013-12-07   

Slot 40 Column 7 Offset 0x2f Length 12 Length (physical) 12

SupplierReference = 293092          

Slot 40 Column 8 Offset 0x1a Length 1 (Bit position 0)

IsOrderFinalized = 1                

Slot 40 Column 9 Offset 0x0 Length 0 Length (physical) 0

Comments = [NULL]                   

Slot 40 Column 10 Offset 0x0 Length 0 Length (physical) 0

InternalComments = [NULL]           

Slot 40 Column 11 Offset 0x1b Length 4 Length (physical) 4

LastEditedBy = 13                   

Slot 40 Column 12 Offset 0x1f Length 8 Length (physical) 8

LastEditedWhen = 2013-12-02 07:00:00.0000000                             

Slot 40 Offset 0x0 Length 0 Length (physical) 0

KeyHashValue = (c7040f544691)       
Slot 41 Offset 0xa45 Length 59

Record Type = PRIMARY_RECORD        Record Attributes =  NULL_BITMAP VARIABLE_COLUMNS
Record Size = 59                    
Memory Dump @0x000000CA1B9F6A45

0000000000000000:   30002700 2e020000 04000000 e3370b07 00000002  0.'.........ã7......
0000000000000014:   000000f7 370b0108 00000000 d85eac3a e4370b0c  ...÷7.......Ø^¬:ä7..
0000000000000028:   00000301 003b0032 00390033 00300039 003200    .....;.2.9.3.0.9.2.

Slot 41 Column 1 Offset 0x4 Length 4 Length (physical) 4

PurchaseOrderID = 558               

Slot 41 Column 2 Offset 0x8 Length 4 Length (physical) 4

SupplierID = 4                      

Slot 41 Column 3 Offset 0xc Length 3 Length (physical) 3

OrderDate = 2013-12-02              

Slot 41 Column 4 Offset 0xf Length 4 Length (physical) 4

DeliveryMethodID = 7                

Slot 41 Column 5 Offset 0x13 Length 4 Length (physical) 4

ContactPersonID = 2                 

Slot 41 Column 6 Offset 0x17 Length 3 Length (physical) 3

ExpectedDeliveryDate = 2013-12-22   

Slot 41 Column 7 Offset 0x2f Length 12 Length (physical) 12

SupplierReference = 293092          

Slot 41 Column 8 Offset 0x1a Length 1 (Bit position 0)

IsOrderFinalized = 1                

Slot 41 Column 9 Offset 0x0 Length 0 Length (physical) 0

Comments = [NULL]                   

Slot 41 Column 10 Offset 0x0 Length 0 Length (physical) 0

InternalComments = [NULL]           

Slot 41 Column 11 Offset 0x1b Length 4 Length (physical) 4

LastEditedBy = 8                    

Slot 41 Column 12 Offset 0x1f Length 8 Length (physical) 8

LastEditedWhen = 2013-12-03 07:00:00.0000000                             

Slot 41 Offset 0x0 Length 0 Length (physical) 0

KeyHashValue = (273021db822d)       
Slot 42 Offset 0xa80 Length 65

Record Type = PRIMARY_RECORD        Record Attributes =  NULL_BITMAP VARIABLE_COLUMNS
Record Size = 65                    
Memory Dump @0x000000CA1B9F6A80

0000000000000000:   30002700 2f020000 07000000 e3370b02 00000002  0.'./.......ã7......
0000000000000014:   000000f7 370b0108 00000000 d85eac3a e4370b0c  ...÷7.......Ø^¬:ä7..
0000000000000028:   00000301 00410042 00430030 00320038 00300039  .....A.B.C.0.2.8.0.9
000000000000003C:   00380032 00                                   .8.2.  

Slot 42 Column 1 Offset 0x4 Length 4 Length (physical) 4

PurchaseOrderID = 559               

Slot 42 Column 2 Offset 0x8 Length 4 Length (physical) 4

SupplierID = 7                      

Slot 42 Column 3 Offset 0xc Length 3 Length (physical) 3

OrderDate = 2013-12-02              

Slot 42 Column 4 Offset 0xf Length 4 Length (physical) 4

DeliveryMethodID = 2                

Slot 42 Column 5 Offset 0x13 Length 4 Length (physical) 4

ContactPersonID = 2                 

Slot 42 Column 6 Offset 0x17 Length 3 Length (physical) 3

ExpectedDeliveryDate = 2013-12-22   

Slot 42 Column 7 Offset 0x2f Length 18 Length (physical) 18

SupplierReference = BC0280982       

Slot 42 Column 8 Offset 0x1a Length 1 (Bit position 0)

IsOrderFinalized = 1                

Slot 42 Column 9 Offset 0x0 Length 0 Length (physical) 0

Comments = [NULL]                   

Slot 42 Column 10 Offset 0x0 Length 0 Length (physical) 0

InternalComments = [NULL]           

Slot 42 Column 11 Offset 0x1b Length 4 Length (physical) 4

LastEditedBy = 8                    

Slot 42 Column 12 Offset 0x1f Length 8 Length (physical) 8

LastEditedWhen = 2013-12-03 07:00:00.0000000                             

Slot 42 Offset 0x0 Length 0 Length (physical) 0

KeyHashValue = (de7c4a4c6721)       
Slot 43 Offset 0xac1 Length 59

Record Type = PRIMARY_RECORD        Record Attributes =  NULL_BITMAP VARIABLE_COLUMNS
Record Size = 59                    
Memory Dump @0x000000CA1B9F6AC1

0000000000000000:   30002700 30020000 04000000 e4370b07 00000002  0.'.0.......ä7......
0000000000000014:   000000f8 370b0111 00000000 d85eac3a e5370b0c  ...ø7.......Ø^¬:å7..
0000000000000028:   00000301 003b0032 00390033 00300039 003200    .....;.2.9.3.0.9.2.

Slot 43 Column 1 Offset 0x4 Length 4 Length (physical) 4

PurchaseOrderID = 560               

Slot 43 Column 2 Offset 0x8 Length 4 Length (physical) 4

SupplierID = 4                      

Slot 43 Column 3 Offset 0xc Length 3 Length (physical) 3

OrderDate = 2013-12-03              

Slot 43 Column 4 Offset 0xf Length 4 Length (physical) 4

DeliveryMethodID = 7                

Slot 43 Column 5 Offset 0x13 Length 4 Length (physical) 4

ContactPersonID = 2                 

Slot 43 Column 6 Offset 0x17 Length 3 Length (physical) 3

ExpectedDeliveryDate = 2013-12-23   

Slot 43 Column 7 Offset 0x2f Length 12 Length (physical) 12

SupplierReference = 293092          

Slot 43 Column 8 Offset 0x1a Length 1 (Bit position 0)

IsOrderFinalized = 1                

Slot 43 Column 9 Offset 0x0 Length 0 Length (physical) 0

Comments = [NULL]                   

Slot 43 Column 10 Offset 0x0 Length 0 Length (physical) 0

InternalComments = [NULL]           

Slot 43 Column 11 Offset 0x1b Length 4 Length (physical) 4

LastEditedBy = 17                   

Slot 43 Column 12 Offset 0x1f Length 8 Length (physical) 8

LastEditedWhen = 2013-12-04 07:00:00.0000000                             

Slot 43 Offset 0x0 Length 0 Length (physical) 0

KeyHashValue = (dfdcb8e71148)       
Slot 44 Offset 0xafc Length 65

Record Type = PRIMARY_RECORD        Record Attributes =  NULL_BITMAP VARIABLE_COLUMNS
Record Size = 65                    
Memory Dump @0x000000CA1B9F6AFC

0000000000000000:   30002700 31020000 07000000 e4370b02 00000002  0.'.1.......ä7......
0000000000000014:   000000f8 370b0111 00000000 d85eac3a e5370b0c  ...ø7.......Ø^¬:å7..
0000000000000028:   00000301 00410042 00430030 00320038 00300039  .....A.B.C.0.2.8.0.9
000000000000003C:   00380032 00                                   .8.2.  

Slot 44 Column 1 Offset 0x4 Length 4 Length (physical) 4

PurchaseOrderID = 561               

Slot 44 Column 2 Offset 0x8 Length 4 Length (physical) 4

SupplierID = 7                      

Slot 44 Column 3 Offset 0xc Length 3 Length (physical) 3

OrderDate = 2013-12-03              

Slot 44 Column 4 Offset 0xf Length 4 Length (physical) 4

DeliveryMethodID = 2                

Slot 44 Column 5 Offset 0x13 Length 4 Length (physical) 4

ContactPersonID = 2                 

Slot 44 Column 6 Offset 0x17 Length 3 Length (physical) 3

ExpectedDeliveryDate = 2013-12-23   

Slot 44 Column 7 Offset 0x2f Length 18 Length (physical) 18

SupplierReference = BC0280982       

Slot 44 Column 8 Offset 0x1a Length 1 (Bit position 0)

IsOrderFinalized = 1                

Slot 44 Column 9 Offset 0x0 Length 0 Length (physical) 0

Comments = [NULL]                   

Slot 44 Column 10 Offset 0x0 Length 0 Length (physical) 0

InternalComments = [NULL]           

Slot 44 Column 11 Offset 0x1b Length 4 Length (physical) 4

LastEditedBy = 17                   

Slot 44 Column 12 Offset 0x1f Length 8 Length (physical) 8

LastEditedWhen = 2013-12-04 07:00:00.0000000                             

Slot 44 Offset 0x0 Length 0 Length (physical) 0

KeyHashValue = (2690d370f444)       
Slot 45 Offset 0xb3d Length 59

Record Type = PRIMARY_RECORD        Record Attributes =  NULL_BITMAP VARIABLE_COLUMNS
Record Size = 59                    
Memory Dump @0x000000CA1B9F6B3D

0000000000000000:   30002700 32020000 04000000 e5370b07 00000002  0.'.2.......å7......
0000000000000014:   000000f9 370b0112 00000000 d85eac3a e6370b0c  ...ù7.......Ø^¬:æ7..
0000000000000028:   00000301 003b0032 00390033 00300039 003200    .....;.2.9.3.0.9.2.

Slot 45 Column 1 Offset 0x4 Length 4 Length (physical) 4

PurchaseOrderID = 562               

Slot 45 Column 2 Offset 0x8 Length 4 Length (physical) 4

SupplierID = 4                      

Slot 45 Column 3 Offset 0xc Length 3 Length (physical) 3

OrderDate = 2013-12-04              

Slot 45 Column 4 Offset 0xf Length 4 Length (physical) 4

DeliveryMethodID = 7                

Slot 45 Column 5 Offset 0x13 Length 4 Length (physical) 4

ContactPersonID = 2                 

Slot 45 Column 6 Offset 0x17 Length 3 Length (physical) 3

ExpectedDeliveryDate = 2013-12-24   

Slot 45 Column 7 Offset 0x2f Length 12 Length (physical) 12

SupplierReference = 293092          

Slot 45 Column 8 Offset 0x1a Length 1 (Bit position 0)

IsOrderFinalized = 1                

Slot 45 Column 9 Offset 0x0 Length 0 Length (physical) 0

Comments = [NULL]                   

Slot 45 Column 10 Offset 0x0 Length 0 Length (physical) 0

InternalComments = [NULL]           

Slot 45 Column 11 Offset 0x1b Length 4 Length (physical) 4

LastEditedBy = 18                   

Slot 45 Column 12 Offset 0x1f Length 8 Length (physical) 8

LastEditedWhen = 2013-12-05 07:00:00.0000000                             

Slot 45 Offset 0x0 Length 0 Length (physical) 0

KeyHashValue = (c6a4fdff30f8)       
Slot 46 Offset 0xb78 Length 65

Record Type = PRIMARY_RECORD        Record Attributes =  NULL_BITMAP VARIABLE_COLUMNS
Record Size = 65                    
Memory Dump @0x000000CA1B9F6B78

0000000000000000:   30002700 33020000 07000000 e5370b02 00000002  0.'.3.......å7......
0000000000000014:   000000f9 370b0112 00000000 d85eac3a e6370b0c  ...ù7.......Ø^¬:æ7..
0000000000000028:   00000301 00410042 00430030 00320038 00300039  .....A.B.C.0.2.8.0.9
000000000000003C:   00380032 00                                   .8.2.  

Slot 46 Column 1 Offset 0x4 Length 4 Length (physical) 4

PurchaseOrderID = 563               

Slot 46 Column 2 Offset 0x8 Length 4 Length (physical) 4

SupplierID = 7                      

Slot 46 Column 3 Offset 0xc Length 3 Length (physical) 3

OrderDate = 2013-12-04              

Slot 46 Column 4 Offset 0xf Length 4 Length (physical) 4

DeliveryMethodID = 2                

Slot 46 Column 5 Offset 0x13 Length 4 Length (physical) 4

ContactPersonID = 2                 

Slot 46 Column 6 Offset 0x17 Length 3 Length (physical) 3

ExpectedDeliveryDate = 2013-12-24   

Slot 46 Column 7 Offset 0x2f Length 18 Length (physical) 18

SupplierReference = BC0280982       

Slot 46 Column 8 Offset 0x1a Length 1 (Bit position 0)

IsOrderFinalized = 1                

Slot 46 Column 9 Offset 0x0 Length 0 Length (physical) 0

Comments = [NULL]                   

Slot 46 Column 10 Offset 0x0 Length 0 Length (physical) 0

InternalComments = [NULL]           

Slot 46 Column 11 Offset 0x1b Length 4 Length (physical) 4

LastEditedBy = 18                   

Slot 46 Column 12 Offset 0x1f Length 8 Length (physical) 8

LastEditedWhen = 2013-12-05 07:00:00.0000000                             

Slot 46 Offset 0x0 Length 0 Length (physical) 0

KeyHashValue = (3fe89668d5f4)       
Slot 47 Offset 0xbb9 Length 59

Record Type = PRIMARY_RECORD        Record Attributes =  NULL_BITMAP VARIABLE_COLUMNS
Record Size = 59                    
Memory Dump @0x000000CA1B9F6BB9

0000000000000000:   30002700 34020000 04000000 e6370b07 00000002  0.'.4.......æ7......
0000000000000014:   000000fa 370b010b 00000000 d85eac3a e7370b0c  ...ú7.......Ø^¬:ç7..
0000000000000028:   00000301 003b0032 00390033 00300039 003200    .....;.2.9.3.0.9.2.

Slot 47 Column 1 Offset 0x4 Length 4 Length (physical) 4

PurchaseOrderID = 564               

Slot 47 Column 2 Offset 0x8 Length 4 Length (physical) 4

SupplierID = 4                      

Slot 47 Column 3 Offset 0xc Length 3 Length (physical) 3

OrderDate = 2013-12-05              

Slot 47 Column 4 Offset 0xf Length 4 Length (physical) 4

DeliveryMethodID = 7                

Slot 47 Column 5 Offset 0x13 Length 4 Length (physical) 4

ContactPersonID = 2                 

Slot 47 Column 6 Offset 0x17 Length 3 Length (physical) 3

ExpectedDeliveryDate = 2013-12-25   

Slot 47 Column 7 Offset 0x2f Length 12 Length (physical) 12

SupplierReference = 293092          

Slot 47 Column 8 Offset 0x1a Length 1 (Bit position 0)

IsOrderFinalized = 1                

Slot 47 Column 9 Offset 0x0 Length 0 Length (physical) 0

Comments = [NULL]                   

Slot 47 Column 10 Offset 0x0 Length 0 Length (physical) 0

InternalComments = [NULL]           

Slot 47 Column 11 Offset 0x1b Length 4 Length (physical) 4

LastEditedBy = 11                   

Slot 47 Column 12 Offset 0x1f Length 8 Length (physical) 8

LastEditedWhen = 2013-12-06 07:00:00.0000000                             

Slot 47 Offset 0x0 Length 0 Length (physical) 0

KeyHashValue = (07cda1e1b981)       
Slot 48 Offset 0xbf4 Length 65

Record Type = PRIMARY_RECORD        Record Attributes =  NULL_BITMAP VARIABLE_COLUMNS
Record Size = 65                    
Memory Dump @0x000000CA1B9F6BF4

0000000000000000:   30002700 35020000 07000000 e6370b02 00000002  0.'.5.......æ7......
0000000000000014:   000000fa 370b010b 00000000 d85eac3a e7370b0c  ...ú7.......Ø^¬:ç7..
0000000000000028:   00000301 00410042 00430030 00320038 00300039  .....A.B.C.0.2.8.0.9
000000000000003C:   00380032 00                                   .8.2.  

Slot 48 Column 1 Offset 0x4 Length 4 Length (physical) 4

PurchaseOrderID = 565               

Slot 48 Column 2 Offset 0x8 Length 4 Length (physical) 4

SupplierID = 7                      

Slot 48 Column 3 Offset 0xc Length 3 Length (physical) 3

OrderDate = 2013-12-05              

Slot 48 Column 4 Offset 0xf Length 4 Length (physical) 4

DeliveryMethodID = 2                

Slot 48 Column 5 Offset 0x13 Length 4 Length (physical) 4

ContactPersonID = 2                 

Slot 48 Column 6 Offset 0x17 Length 3 Length (physical) 3

ExpectedDeliveryDate = 2013-12-25   

Slot 48 Column 7 Offset 0x2f Length 18 Length (physical) 18

SupplierReference = BC0280982       

Slot 48 Column 8 Offset 0x1a Length 1 (Bit position 0)

IsOrderFinalized = 1                

Slot 48 Column 9 Offset 0x0 Length 0 Length (physical) 0

Comments = [NULL]                   

Slot 48 Column 10 Offset 0x0 Length 0 Length (physical) 0

InternalComments = [NULL]           

Slot 48 Column 11 Offset 0x1b Length 4 Length (physical) 4

LastEditedBy = 11                   

Slot 48 Column 12 Offset 0x1f Length 8 Length (physical) 8

LastEditedWhen = 2013-12-06 07:00:00.0000000                             

Slot 48 Offset 0x0 Length 0 Length (physical) 0

KeyHashValue = (fe81ca765c8d)       
Slot 49 Offset 0xc35 Length 59

Record Type = PRIMARY_RECORD        Record Attributes =  NULL_BITMAP VARIABLE_COLUMNS
Record Size = 59                    
Memory Dump @0x000000CA1B9F6C35

0000000000000000:   30002700 36020000 04000000 e7370b07 00000002  0.'.6.......ç7......
0000000000000014:   000000fb 370b0102 00000000 d85eac3a ea370b0c  ...û7.......Ø^¬:ê7..
0000000000000028:   00000301 003b0032 00390033 00300039 003200    .....;.2.9.3.0.9.2.

Slot 49 Column 1 Offset 0x4 Length 4 Length (physical) 4

PurchaseOrderID = 566               

Slot 49 Column 2 Offset 0x8 Length 4 Length (physical) 4

SupplierID = 4                      

Slot 49 Column 3 Offset 0xc Length 3 Length (physical) 3

OrderDate = 2013-12-06              

Slot 49 Column 4 Offset 0xf Length 4 Length (physical) 4

DeliveryMethodID = 7                

Slot 49 Column 5 Offset 0x13 Length 4 Length (physical) 4

ContactPersonID = 2                 

Slot 49 Column 6 Offset 0x17 Length 3 Length (physical) 3

ExpectedDeliveryDate = 2013-12-26   

Slot 49 Column 7 Offset 0x2f Length 12 Length (physical) 12

SupplierReference = 293092          

Slot 49 Column 8 Offset 0x1a Length 1 (Bit position 0)

IsOrderFinalized = 1                

Slot 49 Column 9 Offset 0x0 Length 0 Length (physical) 0

Comments = [NULL]                   

Slot 49 Column 10 Offset 0x0 Length 0 Length (physical) 0

InternalComments = [NULL]           

Slot 49 Column 11 Offset 0x1b Length 4 Length (physical) 4

LastEditedBy = 2                    

Slot 49 Column 12 Offset 0x1f Length 8 Length (physical) 8

LastEditedWhen = 2013-12-09 07:00:00.0000000                             

Slot 49 Offset 0x0 Length 0 Length (physical) 0

KeyHashValue = (1eb5e4f99831)       
Slot 50 Offset 0xc70 Length 65

Record Type = PRIMARY_RECORD        Record Attributes =  NULL_BITMAP VARIABLE_COLUMNS
Record Size = 65                    
Memory Dump @0x000000CA1B9F6C70

0000000000000000:   30002700 37020000 07000000 e7370b02 00000002  0.'.7.......ç7......
0000000000000014:   000000fb 370b0102 00000000 d85eac3a ea370b0c  ...û7.......Ø^¬:ê7..
0000000000000028:   00000301 00410042 00430030 00320038 00300039  .....A.B.C.0.2.8.0.9
000000000000003C:   00380032 00                                   .8.2.  

Slot 50 Column 1 Offset 0x4 Length 4 Length (physical) 4

PurchaseOrderID = 567               

Slot 50 Column 2 Offset 0x8 Length 4 Length (physical) 4

SupplierID = 7                      

Slot 50 Column 3 Offset 0xc Length 3 Length (physical) 3

OrderDate = 2013-12-06              

Slot 50 Column 4 Offset 0xf Length 4 Length (physical) 4

DeliveryMethodID = 2                

Slot 50 Column 5 Offset 0x13 Length 4 Length (physical) 4

ContactPersonID = 2                 

Slot 50 Column 6 Offset 0x17 Length 3 Length (physical) 3

ExpectedDeliveryDate = 2013-12-26   

Slot 50 Column 7 Offset 0x2f Length 18 Length (physical) 18

SupplierReference = BC0280982       

Slot 50 Column 8 Offset 0x1a Length 1 (Bit position 0)

IsOrderFinalized = 1                

Slot 50 Column 9 Offset 0x0 Length 0 Length (physical) 0

Comments = [NULL]                   

Slot 50 Column 10 Offset 0x0 Length 0 Length (physical) 0

InternalComments = [NULL]           

Slot 50 Column 11 Offset 0x1b Length 4 Length (physical) 4

LastEditedBy = 2                    

Slot 50 Column 12 Offset 0x1f Length 8 Length (physical) 8

LastEditedWhen = 2013-12-09 07:00:00.0000000                             

Slot 50 Offset 0x0 Length 0 Length (physical) 0

KeyHashValue = (e7f98f6e7d3d)       
Slot 51 Offset 0xcb1 Length 59

Record Type = PRIMARY_RECORD        Record Attributes =  NULL_BITMAP VARIABLE_COLUMNS
Record Size = 59                    
Memory Dump @0x000000CA1B9F6CB1

0000000000000000:   30002700 38020000 04000000 ea370b07 00000002  0.'.8.......ê7......
0000000000000014:   000000fe 370b0103 00000000 d85eac3a eb370b0c  ...þ7.......Ø^¬:ë7..
0000000000000028:   00000301 003b0032 00390033 00300039 003200    .....;.2.9.3.0.9.2.

Slot 51 Column 1 Offset 0x4 Length 4 Length (physical) 4

PurchaseOrderID = 568               

Slot 51 Column 2 Offset 0x8 Length 4 Length (physical) 4

SupplierID = 4                      

Slot 51 Column 3 Offset 0xc Length 3 Length (physical) 3

OrderDate = 2013-12-09              

Slot 51 Column 4 Offset 0xf Length 4 Length (physical) 4

DeliveryMethodID = 7                

Slot 51 Column 5 Offset 0x13 Length 4 Length (physical) 4

ContactPersonID = 2                 

Slot 51 Column 6 Offset 0x17 Length 3 Length (physical) 3

ExpectedDeliveryDate = 2013-12-29   

Slot 51 Column 7 Offset 0x2f Length 12 Length (physical) 12

SupplierReference = 293092          

Slot 51 Column 8 Offset 0x1a Length 1 (Bit position 0)

IsOrderFinalized = 1                

Slot 51 Column 9 Offset 0x0 Length 0 Length (physical) 0

Comments = [NULL]                   

Slot 51 Column 10 Offset 0x0 Length 0 Length (physical) 0

InternalComments = [NULL]           

Slot 51 Column 11 Offset 0x1b Length 4 Length (physical) 4

LastEditedBy = 3                    

Slot 51 Column 12 Offset 0x1f Length 8 Length (physical) 8

LastEditedWhen = 2013-12-10 07:00:00.0000000                             

Slot 51 Offset 0x0 Length 0 Length (physical) 0

KeyHashValue = (6eff8aeb41db)       
Slot 52 Offset 0xcec Length 65

Record Type = PRIMARY_RECORD        Record Attributes =  NULL_BITMAP VARIABLE_COLUMNS
Record Size = 65                    
Memory Dump @0x000000CA1B9F6CEC

0000000000000000:   30002700 39020000 07000000 ea370b02 00000002  0.'.9.......ê7......
0000000000000014:   000000fe 370b0103 00000000 d85eac3a eb370b0c  ...þ7.......Ø^¬:ë7..
0000000000000028:   00000301 00410042 00430030 00320038 00300039  .....A.B.C.0.2.8.0.9
000000000000003C:   00380032 00                                   .8.2.  

Slot 52 Column 1 Offset 0x4 Length 4 Length (physical) 4

PurchaseOrderID = 569               

Slot 52 Column 2 Offset 0x8 Length 4 Length (physical) 4

SupplierID = 7                      

Slot 52 Column 3 Offset 0xc Length 3 Length (physical) 3

OrderDate = 2013-12-09              

Slot 52 Column 4 Offset 0xf Length 4 Length (physical) 4

DeliveryMethodID = 2                

Slot 52 Column 5 Offset 0x13 Length 4 Length (physical) 4

ContactPersonID = 2                 

Slot 52 Column 6 Offset 0x17 Length 3 Length (physical) 3

ExpectedDeliveryDate = 2013-12-29   

Slot 52 Column 7 Offset 0x2f Length 18 Length (physical) 18

SupplierReference = BC0280982       

Slot 52 Column 8 Offset 0x1a Length 1 (Bit position 0)

IsOrderFinalized = 1                

Slot 52 Column 9 Offset 0x0 Length 0 Length (physical) 0

Comments = [NULL]                   

Slot 52 Column 10 Offset 0x0 Length 0 Length (physical) 0

InternalComments = [NULL]           

Slot 52 Column 11 Offset 0x1b Length 4 Length (physical) 4

LastEditedBy = 3                    

Slot 52 Column 12 Offset 0x1f Length 8 Length (physical) 8

LastEditedWhen = 2013-12-10 07:00:00.0000000                             

Slot 52 Offset 0x0 Length 0 Length (physical) 0

KeyHashValue = (97b3e17ca4d7)       
Slot 53 Offset 0xd2d Length 59

Record Type = PRIMARY_RECORD        Record Attributes =  NULL_BITMAP VARIABLE_COLUMNS
Record Size = 59                    
Memory Dump @0x000000CA1B9F6D2D

0000000000000000:   30002700 3a020000 04000000 eb370b07 00000002  0.'.:.......ë7......
0000000000000014:   000000ff 370b0105 00000000 d85eac3a ec370b0c  ...ÿ7.......Ø^¬:ì7..
0000000000000028:   00000301 003b0032 00390033 00300039 003200    .....;.2.9.3.0.9.2.

Slot 53 Column 1 Offset 0x4 Length 4 Length (physical) 4

PurchaseOrderID = 570               

Slot 53 Column 2 Offset 0x8 Length 4 Length (physical) 4

SupplierID = 4                      

Slot 53 Column 3 Offset 0xc Length 3 Length (physical) 3

OrderDate = 2013-12-10              

Slot 53 Column 4 Offset 0xf Length 4 Length (physical) 4

DeliveryMethodID = 7                

Slot 53 Column 5 Offset 0x13 Length 4 Length (physical) 4

ContactPersonID = 2                 

Slot 53 Column 6 Offset 0x17 Length 3 Length (physical) 3

ExpectedDeliveryDate = 2013-12-30   

Slot 53 Column 7 Offset 0x2f Length 12 Length (physical) 12

SupplierReference = 293092          

Slot 53 Column 8 Offset 0x1a Length 1 (Bit position 0)

IsOrderFinalized = 1                

